{
  "address": "0x5FbDB2315678afecb367f032d93F642f64180aa3",
  "abi": [
    {
      "inputs": [
        {
          "internalType": "string[]",
          "name": "charactername",
          "type": "string[]"
        },
        {
          "internalType": "string[]",
          "name": "characterImageUri",
          "type": "string[]"
        },
        {
          "internalType": "uint256[]",
          "name": "characterHp",
          "type": "uint256[]"
        },
        {
          "internalType": "uint256[]",
          "name": "characterAttackDamage",
          "type": "uint256[]"
        },
        {
          "internalType": "string",
          "name": "bossName",
          "type": "string"
        },
        {
          "internalType": "string",
          "name": "bossImageUri",
          "type": "string"
        },
        {
          "internalType": "uint256",
          "name": "bossHp",
          "type": "uint256"
        },
        {
          "internalType": "uint256",
          "name": "bossAttackDamage",
          "type": "uint256"
        }
      ],
      "stateMutability": "nonpayable",
      "type": "constructor"
    },
    {
      "inputs": [],
      "name": "ERC721Metadata__URI_QueryFor_NonExistentToken",
      "type": "error"
    },
    {
      "inputs": [],
      "name": "lowHp",
      "type": "error"
    },
    {
      "anonymous": false,
      "inputs": [
        {
          "indexed": true,
          "internalType": "address",
          "name": "owner",
          "type": "address"
        },
        {
          "indexed": true,
          "internalType": "address",
          "name": "approved",
          "type": "address"
        },
        {
          "indexed": true,
          "internalType": "uint256",
          "name": "tokenId",
          "type": "uint256"
        }
      ],
      "name": "Approval",
      "type": "event"
    },
    {
      "anonymous": false,
      "inputs": [
        {
          "indexed": true,
          "internalType": "address",
          "name": "owner",
          "type": "address"
        },
        {
          "indexed": true,
          "internalType": "address",
          "name": "operator",
          "type": "address"
        },
        {
          "indexed": false,
          "internalType": "bool",
          "name": "approved",
          "type": "bool"
        }
      ],
      "name": "ApprovalForAll",
      "type": "event"
    },
    {
      "anonymous": false,
      "inputs": [
        {
          "indexed": true,
          "internalType": "address",
          "name": "from",
          "type": "address"
        },
        {
          "indexed": true,
          "internalType": "address",
          "name": "to",
          "type": "address"
        },
        {
          "indexed": true,
          "internalType": "uint256",
          "name": "tokenId",
          "type": "uint256"
        }
      ],
      "name": "Transfer",
      "type": "event"
    },
    {
      "anonymous": false,
      "inputs": [
        {
          "indexed": true,
          "internalType": "address",
          "name": "sender",
          "type": "address"
        },
        {
          "indexed": true,
          "internalType": "uint256",
          "name": "bossHp",
          "type": "uint256"
        },
        {
          "indexed": true,
          "internalType": "uint256",
          "name": "playerHp",
          "type": "uint256"
        }
      ],
      "name": "attackComplete",
      "type": "event"
    },
    {
      "anonymous": false,
      "inputs": [
        {
          "indexed": true,
          "internalType": "address",
          "name": "sender",
          "type": "address"
        },
        {
          "indexed": true,
          "internalType": "uint256",
          "name": "tokenId",
          "type": "uint256"
        },
        {
          "indexed": true,
          "internalType": "uint256",
          "name": "characterIndex",
          "type": "uint256"
        }
      ],
      "name": "characterMintedNft",
      "type": "event"
    },
    {
      "inputs": [
        {
          "internalType": "address",
          "name": "to",
          "type": "address"
        },
        {
          "internalType": "uint256",
          "name": "tokenId",
          "type": "uint256"
        }
      ],
      "name": "approve",
      "outputs": [],
      "stateMutability": "nonpayable",
      "type": "function"
    },
    {
      "inputs": [],
      "name": "attackBoss",
      "outputs": [],
      "stateMutability": "nonpayable",
      "type": "function"
    },
    {
      "inputs": [
        {
          "internalType": "address",
          "name": "owner",
          "type": "address"
        }
      ],
      "name": "balanceOf",
      "outputs": [
        {
          "internalType": "uint256",
          "name": "",
          "type": "uint256"
        }
      ],
      "stateMutability": "view",
      "type": "function"
    },
    {
      "inputs": [],
      "name": "checkIfUserHasNFT",
      "outputs": [
        {
          "components": [
            {
              "internalType": "uint256",
              "name": "index",
              "type": "uint256"
            },
            {
              "internalType": "string",
              "name": "name",
              "type": "string"
            },
            {
              "internalType": "string",
              "name": "imageUri",
              "type": "string"
            },
            {
              "internalType": "uint256",
              "name": "hp",
              "type": "uint256"
            },
            {
              "internalType": "uint256",
              "name": "attackDamage",
              "type": "uint256"
            },
            {
              "internalType": "uint256",
              "name": "maxHp",
              "type": "uint256"
            }
          ],
          "internalType": "struct MyEpicGame.characterAttributes",
          "name": "",
          "type": "tuple"
        }
      ],
      "stateMutability": "view",
      "type": "function"
    },
    {
      "inputs": [],
      "name": "getAlldefaultCharacters",
      "outputs": [
        {
          "components": [
            {
              "internalType": "uint256",
              "name": "index",
              "type": "uint256"
            },
            {
              "internalType": "string",
              "name": "name",
              "type": "string"
            },
            {
              "internalType": "string",
              "name": "imageUri",
              "type": "string"
            },
            {
              "internalType": "uint256",
              "name": "hp",
              "type": "uint256"
            },
            {
              "internalType": "uint256",
              "name": "attackDamage",
              "type": "uint256"
            },
            {
              "internalType": "uint256",
              "name": "maxHp",
              "type": "uint256"
            }
          ],
          "internalType": "struct MyEpicGame.characterAttributes[]",
          "name": "",
          "type": "tuple[]"
        }
      ],
      "stateMutability": "view",
      "type": "function"
    },
    {
      "inputs": [
        {
          "internalType": "uint256",
          "name": "tokenId",
          "type": "uint256"
        }
      ],
      "name": "getApproved",
      "outputs": [
        {
          "internalType": "address",
          "name": "",
          "type": "address"
        }
      ],
      "stateMutability": "view",
      "type": "function"
    },
    {
      "inputs": [],
      "name": "getBigBoss",
      "outputs": [
        {
          "components": [
            {
              "internalType": "string",
              "name": "name",
              "type": "string"
            },
            {
              "internalType": "string",
              "name": "imageUri",
              "type": "string"
            },
            {
              "internalType": "uint256",
              "name": "hp",
              "type": "uint256"
            },
            {
              "internalType": "uint256",
              "name": "maxHp",
              "type": "uint256"
            },
            {
              "internalType": "uint256",
              "name": "attackDamage",
              "type": "uint256"
            }
          ],
          "internalType": "struct MyEpicGame.bigBoss",
          "name": "",
          "type": "tuple"
        }
      ],
      "stateMutability": "view",
      "type": "function"
    },
    {
      "inputs": [],
      "name": "getTokenId",
      "outputs": [
        {
          "components": [
            {
              "internalType": "uint256",
              "name": "_value",
              "type": "uint256"
            }
          ],
          "internalType": "struct Counters.Counter",
          "name": "",
          "type": "tuple"
        }
      ],
      "stateMutability": "view",
      "type": "function"
    },
    {
      "inputs": [
        {
          "internalType": "address",
          "name": "owner",
          "type": "address"
        },
        {
          "internalType": "address",
          "name": "operator",
          "type": "address"
        }
      ],
      "name": "isApprovedForAll",
      "outputs": [
        {
          "internalType": "bool",
          "name": "",
          "type": "bool"
        }
      ],
      "stateMutability": "view",
      "type": "function"
    },
    {
      "inputs": [
        {
          "internalType": "uint256",
          "name": "_characterIndex",
          "type": "uint256"
        }
      ],
      "name": "mintCharacterNFT",
      "outputs": [],
      "stateMutability": "nonpayable",
      "type": "function"
    },
    {
      "inputs": [],
      "name": "name",
      "outputs": [
        {
          "internalType": "string",
          "name": "",
          "type": "string"
        }
      ],
      "stateMutability": "view",
      "type": "function"
    },
    {
      "inputs": [
        {
          "internalType": "uint256",
          "name": "tokenId",
          "type": "uint256"
        }
      ],
      "name": "ownerOf",
      "outputs": [
        {
          "internalType": "address",
          "name": "",
          "type": "address"
        }
      ],
      "stateMutability": "view",
      "type": "function"
    },
    {
      "inputs": [
        {
          "internalType": "address",
          "name": "from",
          "type": "address"
        },
        {
          "internalType": "address",
          "name": "to",
          "type": "address"
        },
        {
          "internalType": "uint256",
          "name": "tokenId",
          "type": "uint256"
        }
      ],
      "name": "safeTransferFrom",
      "outputs": [],
      "stateMutability": "nonpayable",
      "type": "function"
    },
    {
      "inputs": [
        {
          "internalType": "address",
          "name": "from",
          "type": "address"
        },
        {
          "internalType": "address",
          "name": "to",
          "type": "address"
        },
        {
          "internalType": "uint256",
          "name": "tokenId",
          "type": "uint256"
        },
        {
          "internalType": "bytes",
          "name": "data",
          "type": "bytes"
        }
      ],
      "name": "safeTransferFrom",
      "outputs": [],
      "stateMutability": "nonpayable",
      "type": "function"
    },
    {
      "inputs": [
        {
          "internalType": "address",
          "name": "operator",
          "type": "address"
        },
        {
          "internalType": "bool",
          "name": "approved",
          "type": "bool"
        }
      ],
      "name": "setApprovalForAll",
      "outputs": [],
      "stateMutability": "nonpayable",
      "type": "function"
    },
    {
      "inputs": [
        {
          "internalType": "bytes4",
          "name": "interfaceId",
          "type": "bytes4"
        }
      ],
      "name": "supportsInterface",
      "outputs": [
        {
          "internalType": "bool",
          "name": "",
          "type": "bool"
        }
      ],
      "stateMutability": "view",
      "type": "function"
    },
    {
      "inputs": [],
      "name": "symbol",
      "outputs": [
        {
          "internalType": "string",
          "name": "",
          "type": "string"
        }
      ],
      "stateMutability": "view",
      "type": "function"
    },
    {
      "inputs": [
        {
          "internalType": "uint256",
          "name": "_tokenId",
          "type": "uint256"
        }
      ],
      "name": "tokenURI",
      "outputs": [
        {
          "internalType": "string",
          "name": "",
          "type": "string"
        }
      ],
      "stateMutability": "view",
      "type": "function"
    },
    {
      "inputs": [
        {
          "internalType": "address",
          "name": "from",
          "type": "address"
        },
        {
          "internalType": "address",
          "name": "to",
          "type": "address"
        },
        {
          "internalType": "uint256",
          "name": "tokenId",
          "type": "uint256"
        }
      ],
      "name": "transferFrom",
      "outputs": [],
      "stateMutability": "nonpayable",
      "type": "function"
    }
  ],
  "transactionHash": "0x15f303fe32f7c6bd5b9797542b7ce1944bb0494aaef2642b3be584f1992fa26d",
  "args": [
    [
      "Leo",
      "Aang",
      "Pikachu"
    ],
    [
      "https://i.imgur.com/pKd5Sdk.png",
      "https://i.imgur.com/xVu4vFL.png",
      "https://i.imgur.com/WMB6g9u.png"
    ],
    [
      100,
      200,
      300
    ],
    [
      100,
      50,
      25
    ],
    "elon_musk",
    "https://i.imgur.com/AksR0tt.png",
    10000,
    50
  ],
  "numDeployments": 1,
  "solcInputHash": "be31dcec2dc99a976d4416214978d7bd",
  "bytecode": "0x60806040523480156200001157600080fd5b50604051620053d8380380620053d8833981810160405281019062000037919062000929565b6040518060400160405280600681526020017f4845524f455300000000000000000000000000000000000000000000000000008152506040518060400160405280600481526020017f4845524f000000000000000000000000000000000000000000000000000000008152508160009081620000b4919062000ced565b508060019081620000c6919062000ced565b5050506040518060a00160405280858152602001848152602001838152602001838152602001828152506006600082015181600001908162000109919062000ced565b50602082015181600101908162000121919062000ced565b5060408201518160020155606082015181600301556080820151816004015590505060005b88518110156200047857600b6040518060c001604052808381526020018b848151811062000179576200017862000dd4565b5b602002602001015181526020018a84815181106200019c576200019b62000dd4565b5b60200260200101518152602001898481518110620001bf57620001be62000dd4565b5b60200260200101518152602001888481518110620001e257620001e162000dd4565b5b6020026020010151815260200189848151811062000205576200020462000dd4565b5b602002602001015181525090806001815401808255809150506001900390600052602060002090600602016000909190919091506000820151816000015560208201518160010190816200025a919062000ced565b50604082015181600201908162000272919062000ced565b50606082015181600301556080820151816004015560a0820151816005015550506000600b8281548110620002ac57620002ab62000dd4565b5b90600052602060002090600602016040518060c001604052908160008201548152602001600182018054620002e19062000ae6565b80601f01602080910402602001604051908101604052809291908181526020018280546200030f9062000ae6565b8015620003605780601f10620003345761010080835404028352916020019162000360565b820191906000526020600020905b8154815290600101906020018083116200034257829003601f168201915b505050505081526020016002820180546200037b9062000ae6565b80601f0160208091040260200160405190810160405280929190818152602001828054620003a99062000ae6565b8015620003fa5780601f10620003ce57610100808354040283529160200191620003fa565b820191906000526020600020905b815481529060010190602001808311620003dc57829003601f168201915b505050505081526020016003820154815260200160048201548152602001600582015481525050905062000461604051806060016040528060268152602001620053b2602691398260200151836060015184604001516200049e60201b620017fc1760201c565b5080806200046f9062000e32565b91505062000146565b5062000490600c6200054a60201b6200189e1760201c565b505050505050505062000f44565b6200054484848484604051602401620004bb949392919062000ee2565b6040516020818303038152906040527f5d1a971a000000000000000000000000000000000000000000000000000000007bffffffffffffffffffffffffffffffffffffffffffffffffffffffff19166020820180517bffffffffffffffffffffffffffffffffffffffffffffffffffffffff83818316178352505050506200056060201b60201c565b50505050565b6001816000016000828254019250508190555050565b60008151905060006a636f6e736f6c652e6c6f679050602083016000808483855afa5050505050565b6000604051905090565b600080fd5b600080fd5b600080fd5b6000601f19601f8301169050919050565b7f4e487b7100000000000000000000000000000000000000000000000000000000600052604160045260246000fd5b620005ed82620005a2565b810181811067ffffffffffffffff821117156200060f576200060e620005b3565b5b80604052505050565b60006200062462000589565b9050620006328282620005e2565b919050565b600067ffffffffffffffff821115620006555762000654620005b3565b5b602082029050602081019050919050565b600080fd5b600080fd5b600067ffffffffffffffff8211156200068e576200068d620005b3565b5b6200069982620005a2565b9050602081019050919050565b60005b83811015620006c6578082015181840152602081019050620006a9565b60008484015250505050565b6000620006e9620006e38462000670565b62000618565b9050828152602081018484840111156200070857620007076200066b565b5b62000715848285620006a6565b509392505050565b600082601f8301126200073557620007346200059d565b5b815162000747848260208601620006d2565b91505092915050565b600062000767620007618462000637565b62000618565b905080838252602082019050602084028301858111156200078d576200078c62000666565b5b835b81811015620007db57805167ffffffffffffffff811115620007b657620007b56200059d565b5b808601620007c589826200071d565b855260208501945050506020810190506200078f565b5050509392505050565b600082601f830112620007fd57620007fc6200059d565b5b81516200080f84826020860162000750565b91505092915050565b600067ffffffffffffffff821115620008365762000835620005b3565b5b602082029050602081019050919050565b6000819050919050565b6200085c8162000847565b81146200086857600080fd5b50565b6000815190506200087c8162000851565b92915050565b600062000899620008938462000818565b62000618565b90508083825260208201905060208402830185811115620008bf57620008be62000666565b5b835b81811015620008ec5780620008d788826200086b565b845260208401935050602081019050620008c1565b5050509392505050565b600082601f8301126200090e576200090d6200059d565b5b81516200092084826020860162000882565b91505092915050565b600080600080600080600080610100898b0312156200094d576200094c62000593565b5b600089015167ffffffffffffffff8111156200096e576200096d62000598565b5b6200097c8b828c01620007e5565b985050602089015167ffffffffffffffff811115620009a0576200099f62000598565b5b620009ae8b828c01620007e5565b975050604089015167ffffffffffffffff811115620009d257620009d162000598565b5b620009e08b828c01620008f6565b965050606089015167ffffffffffffffff81111562000a045762000a0362000598565b5b62000a128b828c01620008f6565b955050608089015167ffffffffffffffff81111562000a365762000a3562000598565b5b62000a448b828c016200071d565b94505060a089015167ffffffffffffffff81111562000a685762000a6762000598565b5b62000a768b828c016200071d565b93505060c062000a898b828c016200086b565b92505060e062000a9c8b828c016200086b565b9150509295985092959890939650565b600081519050919050565b7f4e487b7100000000000000000000000000000000000000000000000000000000600052602260045260246000fd5b6000600282049050600182168062000aff57607f821691505b60208210810362000b155762000b1462000ab7565b5b50919050565b60008190508160005260206000209050919050565b60006020601f8301049050919050565b600082821b905092915050565b60006008830262000b7f7fffffffffffffffffffffffffffffffffffffffffffffffffffffffffffffffff8262000b40565b62000b8b868362000b40565b95508019841693508086168417925050509392505050565b6000819050919050565b600062000bce62000bc862000bc28462000847565b62000ba3565b62000847565b9050919050565b6000819050919050565b62000bea8362000bad565b62000c0262000bf98262000bd5565b84845462000b4d565b825550505050565b600090565b62000c1962000c0a565b62000c2681848462000bdf565b505050565b5b8181101562000c4e5762000c4260008262000c0f565b60018101905062000c2c565b5050565b601f82111562000c9d5762000c678162000b1b565b62000c728462000b30565b8101602085101562000c82578190505b62000c9a62000c918562000b30565b83018262000c2b565b50505b505050565b600082821c905092915050565b600062000cc26000198460080262000ca2565b1980831691505092915050565b600062000cdd838362000caf565b9150826002028217905092915050565b62000cf88262000aac565b67ffffffffffffffff81111562000d145762000d13620005b3565b5b62000d20825462000ae6565b62000d2d82828562000c52565b600060209050601f83116001811462000d65576000841562000d50578287015190505b62000d5c858262000ccf565b86555062000dcc565b601f19841662000d758662000b1b565b60005b8281101562000d9f5784890151825560018201915060208501945060208101905062000d78565b8683101562000dbf578489015162000dbb601f89168262000caf565b8355505b6001600288020188555050505b505050505050565b7f4e487b7100000000000000000000000000000000000000000000000000000000600052603260045260246000fd5b7f4e487b7100000000000000000000000000000000000000000000000000000000600052601160045260246000fd5b600062000e3f8262000847565b91507fffffffffffffffffffffffffffffffffffffffffffffffffffffffffffffffff820362000e745762000e7362000e03565b5b600182019050919050565b600082825260208201905092915050565b600062000e9d8262000aac565b62000ea9818562000e7f565b935062000ebb818560208601620006a6565b62000ec681620005a2565b840191505092915050565b62000edc8162000847565b82525050565b6000608082019050818103600083015262000efe818762000e90565b9050818103602083015262000f14818662000e90565b905062000f25604083018562000ed1565b818103606083015262000f39818462000e90565b905095945050505050565b61445e8062000f546000396000f3fe608060405234801561001057600080fd5b50600436106101215760003560e01c80636352211e116100ad578063c87b56dd11610071578063c87b56dd14610308578063c8cf27f414610338578063d4f24c5b14610356578063e985e9c514610360578063f8b81ef71461039057610121565b80636352211e1461025257806370a082311461028257806395d89b41146102b2578063a22cb465146102d0578063b88d4fde146102ec57610121565b8063081812fc116100f4578063081812fc146101b0578063095ea7b3146101e0578063105474f6146101fc57806323b872dd1461021a57806342842e0e1461023657610121565b8063010a38f51461012657806301ffc9a7146101445780630665f9611461017457806306fdde0314610192575b600080fd5b61012e6103ac565b60405161013b9190612a8f565b60405180910390f35b61015e60048036038101906101599190612b16565b6103d0565b60405161016b9190612b5e565b60405180910390f35b61017c6104b2565b6040516101899190612c86565b60405180910390f35b61019a61060e565b6040516101a79190612cf2565b60405180910390f35b6101ca60048036038101906101c59190612d40565b6106a0565b6040516101d79190612dae565b60405180910390f35b6101fa60048036038101906101f59190612df5565b6106e6565b005b6102046107fd565b6040516102119190612f87565b60405180910390f35b610234600480360381019061022f9190612fa9565b6109a8565b005b610250600480360381019061024b9190612fa9565b610a08565b005b61026c60048036038101906102679190612d40565b610a28565b6040516102799190612dae565b60405180910390f35b61029c60048036038101906102979190612ffc565b610aae565b6040516102a99190613038565b60405180910390f35b6102ba610b65565b6040516102c79190612cf2565b60405180910390f35b6102ea60048036038101906102e5919061307f565b610bf7565b005b610306600480360381019061030191906131f4565b610c0d565b005b610322600480360381019061031d9190612d40565b610c6f565b60405161032f9190612cf2565b60405180910390f35b610340610f00565b60405161034d9190613307565b60405180910390f35b61035e6110d8565b005b61037a60048036038101906103759190613329565b611436565b6040516103879190612b5e565b60405180910390f35b6103aa60048036038101906103a59190612d40565b6114ca565b005b6103b46129e2565b600c604051806020016040529081600082015481525050905090565b60007f80ac58cd000000000000000000000000000000000000000000000000000000007bffffffffffffffffffffffffffffffffffffffffffffffffffffffff1916827bffffffffffffffffffffffffffffffffffffffffffffffffffffffff1916148061049b57507f5b5e139f000000000000000000000000000000000000000000000000000000007bffffffffffffffffffffffffffffffffffffffffffffffffffffffff1916827bffffffffffffffffffffffffffffffffffffffffffffffffffffffff1916145b806104ab57506104aa826118b4565b5b9050919050565b6104ba6129f5565b60066040518060a00160405290816000820180546104d790613398565b80601f016020809104026020016040519081016040528092919081815260200182805461050390613398565b80156105505780601f1061052557610100808354040283529160200191610550565b820191906000526020600020905b81548152906001019060200180831161053357829003601f168201915b5050505050815260200160018201805461056990613398565b80601f016020809104026020016040519081016040528092919081815260200182805461059590613398565b80156105e25780601f106105b7576101008083540402835291602001916105e2565b820191906000526020600020905b8154815290600101906020018083116105c557829003601f168201915b505050505081526020016002820154815260200160038201548152602001600482015481525050905090565b60606000805461061d90613398565b80601f016020809104026020016040519081016040528092919081815260200182805461064990613398565b80156106965780601f1061066b57610100808354040283529160200191610696565b820191906000526020600020905b81548152906001019060200180831161067957829003601f168201915b5050505050905090565b60006106ab8261191e565b6004600083815260200190815260200160002060009054906101000a900473ffffffffffffffffffffffffffffffffffffffff169050919050565b60006106f182610a28565b90508073ffffffffffffffffffffffffffffffffffffffff168373ffffffffffffffffffffffffffffffffffffffff1603610761576040517f08c379a00000000000000000000000000000000000000000000000000000000081526004016107589061343b565b60405180910390fd5b8073ffffffffffffffffffffffffffffffffffffffff16610780611969565b73ffffffffffffffffffffffffffffffffffffffff1614806107af57506107ae816107a9611969565b611436565b5b6107ee576040517f08c379a00000000000000000000000000000000000000000000000000000000081526004016107e5906134cd565b60405180910390fd5b6107f88383611971565b505050565b6060600b805480602002602001604051908101604052809291908181526020016000905b8282101561099f57838290600052602060002090600602016040518060c00160405290816000820154815260200160018201805461085e90613398565b80601f016020809104026020016040519081016040528092919081815260200182805461088a90613398565b80156108d75780601f106108ac576101008083540402835291602001916108d7565b820191906000526020600020905b8154815290600101906020018083116108ba57829003601f168201915b505050505081526020016002820180546108f090613398565b80601f016020809104026020016040519081016040528092919081815260200182805461091c90613398565b80156109695780601f1061093e57610100808354040283529160200191610969565b820191906000526020600020905b81548152906001019060200180831161094c57829003601f168201915b50505050508152602001600382015481526020016004820154815260200160058201548152505081526020019060010190610821565b50505050905090565b6109b96109b3611969565b82611a2a565b6109f8576040517f08c379a00000000000000000000000000000000000000000000000000000000081526004016109ef9061355f565b60405180910390fd5b610a03838383611abf565b505050565b610a2383838360405180602001604052806000815250610c0d565b505050565b600080610a3483611db8565b9050600073ffffffffffffffffffffffffffffffffffffffff168173ffffffffffffffffffffffffffffffffffffffff1603610aa5576040517f08c379a0000000000000000000000000000000000000000000000000000000008152600401610a9c906135cb565b60405180910390fd5b80915050919050565b60008073ffffffffffffffffffffffffffffffffffffffff168273ffffffffffffffffffffffffffffffffffffffff1603610b1e576040517f08c379a0000000000000000000000000000000000000000000000000000000008152600401610b159061365d565b60405180910390fd5b600360008373ffffffffffffffffffffffffffffffffffffffff1673ffffffffffffffffffffffffffffffffffffffff168152602001908152602001600020549050919050565b606060018054610b7490613398565b80601f0160208091040260200160405190810160405280929190818152602001828054610ba090613398565b8015610bed5780601f10610bc257610100808354040283529160200191610bed565b820191906000526020600020905b815481529060010190602001808311610bd057829003601f168201915b5050505050905090565b610c09610c02611969565b8383611df5565b5050565b610c1e610c18611969565b83611a2a565b610c5d576040517f08c379a0000000000000000000000000000000000000000000000000000000008152600401610c549061355f565b60405180910390fd5b610c6984848484611f61565b50505050565b6060610c7a82611fbd565b610cb0576040517f6df5edae00000000000000000000000000000000000000000000000000000000815260040160405180910390fd5b6000600e60008481526020019081526020016000206040518060c001604052908160008201548152602001600182018054610cea90613398565b80601f0160208091040260200160405190810160405280929190818152602001828054610d1690613398565b8015610d635780601f10610d3857610100808354040283529160200191610d63565b820191906000526020600020905b815481529060010190602001808311610d4657829003601f168201915b50505050508152602001600282018054610d7c90613398565b80601f0160208091040260200160405190810160405280929190818152602001828054610da890613398565b8015610df55780601f10610dca57610100808354040283529160200191610df5565b820191906000526020600020905b815481529060010190602001808311610dd857829003601f168201915b50505050508152602001600382015481526020016004820154815260200160058201548152505090506000610e2d8260600151611ffe565b90506000610e3e8360a00151611ffe565b90506000610e4f8460800151611ffe565b905060006040518060400160405280601d81526020017f646174613a6170706c69636174696f6e2f6a736f6e3b6261736536342c00000081525090506000610ecf8660200151610e9e8a611ffe565b8860400151888888604051602001610ebb9695949392919061398b565b6040516020818303038152906040526120cc565b90508181604051602001610ee4929190613a30565b6040516020818303038152906040529650505050505050919050565b610f08612a24565b6000600d60003373ffffffffffffffffffffffffffffffffffffffff1673ffffffffffffffffffffffffffffffffffffffff16815260200190815260200160002054905060008111156110c757600e60008281526020019081526020016000206040518060c001604052908160008201548152602001600182018054610f8d90613398565b80601f0160208091040260200160405190810160405280929190818152602001828054610fb990613398565b80156110065780601f10610fdb57610100808354040283529160200191611006565b820191906000526020600020905b815481529060010190602001808311610fe957829003601f168201915b5050505050815260200160028201805461101f90613398565b80601f016020809104026020016040519081016040528092919081815260200182805461104b90613398565b80156110985780601f1061106d57610100808354040283529160200191611098565b820191906000526020600020905b81548152906001019060200180831161107b57829003601f168201915b5050505050815260200160038201548152602001600482015481526020016005820154815250509150506110d5565b6110cf612a24565b80925050505b90565b6000600d60003373ffffffffffffffffffffffffffffffffffffffff1673ffffffffffffffffffffffffffffffffffffffff1681526020019081526020016000205490506000600e600083815260200190815260200160002090506111eb6040518060600160405280603c81526020016143ed603c913982600101805461115e90613398565b80601f016020809104026020016040519081016040528092919081815260200182805461118a90613398565b80156111d75780601f106111ac576101008083540402835291602001916111d7565b820191906000526020600020905b8154815290600101906020018083116111ba57829003601f168201915b50505050508360030154846004015461222f565b6112c36040518060400160405280601b81526020017f426f73732025732068617320257320485020616e6420257320414400000000008152506006600001805461123490613398565b80601f016020809104026020016040519081016040528092919081815260200182805461126090613398565b80156112ad5780601f10611282576101008083540402835291602001916112ad565b820191906000526020600020905b81548152906001019060200180831161129057829003601f168201915b505050505060066002015460066004015461222f565b600081600301541115806112dd5750600060066002015411155b15611314576040517f4bd4766400000000000000000000000000000000000000000000000000000000815260040160405180910390fd5b80600401546006600201541015611335576000600660020181905550611356565b80600401546006600201600082825461134e9190613a83565b925050819055505b600660040154816003015410156113765760008160030181905550611397565b60066004015481600301600082825461138f9190613a83565b925050819055505b6113be6040518060600160405280602581526020016143c8602591396006600201546122d1565b6113e46040518060600160405280602781526020016143336027913982600301546122d1565b80600301546006600201543373ffffffffffffffffffffffffffffffffffffffff167fd6386a7965b8bdb833e88dd438ceec1373819ae98011196a44540906c112ce5160405160405180910390a45050565b6000600560008473ffffffffffffffffffffffffffffffffffffffff1673ffffffffffffffffffffffffffffffffffffffff16815260200190815260200160002060008373ffffffffffffffffffffffffffffffffffffffff1673ffffffffffffffffffffffffffffffffffffffff16815260200190815260200160002060009054906101000a900460ff16905092915050565b60006114d6600c61236d565b90506114e2338261237b565b6040518060c00160405280838152602001600b848154811061150757611506613ab7565b5b9060005260206000209060060201600101805461152390613398565b80601f016020809104026020016040519081016040528092919081815260200182805461154f90613398565b801561159c5780601f106115715761010080835404028352916020019161159c565b820191906000526020600020905b81548152906001019060200180831161157f57829003601f168201915b50505050508152602001600b84815481106115ba576115b9613ab7565b5b906000526020600020906006020160020180546115d690613398565b80601f016020809104026020016040519081016040528092919081815260200182805461160290613398565b801561164f5780601f106116245761010080835404028352916020019161164f565b820191906000526020600020905b81548152906001019060200180831161163257829003601f168201915b50505050508152602001600b848154811061166d5761166c613ab7565b5b9060005260206000209060060201600301548152602001600b848154811061169857611697613ab7565b5b9060005260206000209060060201600401548152602001600b84815481106116c3576116c2613ab7565b5b906000526020600020906006020160050154815250600e600083815260200190815260200160002060008201518160000155602082015181600101908161170a9190613c92565b5060408201518160020190816117209190613c92565b50606082015181600301556080820151816004015560a082015181600501559050506117656040518060600160405280602e815260200161439a602e91398284612399565b80600d60003373ffffffffffffffffffffffffffffffffffffffff1673ffffffffffffffffffffffffffffffffffffffff168152602001908152602001600020819055506117b3600c61189e565b81813373ffffffffffffffffffffffffffffffffffffffff167f1c303622a0278ac56a75c656e4d50eeba5bb1e20c526fdbad47c488a90f5878360405160405180910390a45050565b611898848484846040516024016118169493929190613d64565b6040516020818303038152906040527f5d1a971a000000000000000000000000000000000000000000000000000000007bffffffffffffffffffffffffffffffffffffffffffffffffffffffff19166020820180517bffffffffffffffffffffffffffffffffffffffffffffffffffffffff8381831617835250505050612438565b50505050565b6001816000016000828254019250508190555050565b60007f01ffc9a7000000000000000000000000000000000000000000000000000000007bffffffffffffffffffffffffffffffffffffffffffffffffffffffff1916827bffffffffffffffffffffffffffffffffffffffffffffffffffffffff1916149050919050565b61192781611fbd565b611966576040517f08c379a000000000000000000000000000000000000000000000000000000000815260040161195d906135cb565b60405180910390fd5b50565b600033905090565b816004600083815260200190815260200160002060006101000a81548173ffffffffffffffffffffffffffffffffffffffff021916908373ffffffffffffffffffffffffffffffffffffffff160217905550808273ffffffffffffffffffffffffffffffffffffffff166119e483610a28565b73ffffffffffffffffffffffffffffffffffffffff167f8c5be1e5ebec7d5bd14f71427d1e84f3dd0314c0f7b2291e5b200ac8c7c3b92560405160405180910390a45050565b600080611a3683610a28565b90508073ffffffffffffffffffffffffffffffffffffffff168473ffffffffffffffffffffffffffffffffffffffff161480611a785750611a778185611436565b5b80611ab657508373ffffffffffffffffffffffffffffffffffffffff16611a9e846106a0565b73ffffffffffffffffffffffffffffffffffffffff16145b91505092915050565b8273ffffffffffffffffffffffffffffffffffffffff16611adf82610a28565b73ffffffffffffffffffffffffffffffffffffffff1614611b35576040517f08c379a0000000000000000000000000000000000000000000000000000000008152600401611b2c90613e30565b60405180910390fd5b600073ffffffffffffffffffffffffffffffffffffffff168273ffffffffffffffffffffffffffffffffffffffff1603611ba4576040517f08c379a0000000000000000000000000000000000000000000000000000000008152600401611b9b90613ec2565b60405180910390fd5b611bb18383836001612461565b8273ffffffffffffffffffffffffffffffffffffffff16611bd182610a28565b73ffffffffffffffffffffffffffffffffffffffff1614611c27576040517f08c379a0000000000000000000000000000000000000000000000000000000008152600401611c1e90613e30565b60405180910390fd5b6004600082815260200190815260200160002060006101000a81549073ffffffffffffffffffffffffffffffffffffffff02191690556001600360008573ffffffffffffffffffffffffffffffffffffffff1673ffffffffffffffffffffffffffffffffffffffff168152602001908152602001600020600082825403925050819055506001600360008473ffffffffffffffffffffffffffffffffffffffff1673ffffffffffffffffffffffffffffffffffffffff16815260200190815260200160002060008282540192505081905550816002600083815260200190815260200160002060006101000a81548173ffffffffffffffffffffffffffffffffffffffff021916908373ffffffffffffffffffffffffffffffffffffffff160217905550808273ffffffffffffffffffffffffffffffffffffffff168473ffffffffffffffffffffffffffffffffffffffff167fddf252ad1be2c89b69c2b068fc378daa952ba7f163c4a11628f55a4df523b3ef60405160405180910390a4611db38383836001612467565b505050565b60006002600083815260200190815260200160002060009054906101000a900473ffffffffffffffffffffffffffffffffffffffff169050919050565b8173ffffffffffffffffffffffffffffffffffffffff168373ffffffffffffffffffffffffffffffffffffffff1603611e63576040517f08c379a0000000000000000000000000000000000000000000000000000000008152600401611e5a90613f2e565b60405180910390fd5b80600560008573ffffffffffffffffffffffffffffffffffffffff1673ffffffffffffffffffffffffffffffffffffffff16815260200190815260200160002060008473ffffffffffffffffffffffffffffffffffffffff1673ffffffffffffffffffffffffffffffffffffffff16815260200190815260200160002060006101000a81548160ff0219169083151502179055508173ffffffffffffffffffffffffffffffffffffffff168373ffffffffffffffffffffffffffffffffffffffff167f17307eab39ab6107e8899845ad3d59bd9653f200f220920489ca2b5937696c3183604051611f549190612b5e565b60405180910390a3505050565b611f6c848484611abf565b611f788484848461246d565b611fb7576040517f08c379a0000000000000000000000000000000000000000000000000000000008152600401611fae90613fc0565b60405180910390fd5b50505050565b60008073ffffffffffffffffffffffffffffffffffffffff16611fdf83611db8565b73ffffffffffffffffffffffffffffffffffffffff1614159050919050565b60606000600161200d846125f4565b01905060008167ffffffffffffffff81111561202c5761202b6130c9565b5b6040519080825280601f01601f19166020018201604052801561205e5781602001600182028036833780820191505090505b509050600082602001820190505b6001156120c1578080600190039150507f3031323334353637383961626364656600000000000000000000000000000000600a86061a8153600a85816120b5576120b4613fe0565b5b0494506000850361206c575b819350505050919050565b606060008251036120ee5760405180602001604052806000815250905061222a565b600060405180606001604052806040815260200161435a604091399050600060036002855161211d919061400f565b6121279190614043565b60046121339190614074565b67ffffffffffffffff81111561214c5761214b6130c9565b5b6040519080825280601f01601f19166020018201604052801561217e5781602001600182028036833780820191505090505b509050600182016020820185865187015b808210156121ea576003820191508151603f8160121c168501518453600184019350603f81600c1c168501518453600184019350603f8160061c168501518453600184019350603f811685015184536001840193505061218f565b5050600386510660018114612206576002811461221957612221565b603d6001830353603d6002830353612221565b603d60018303535b50505080925050505b919050565b6122cb8484848460405160240161224994939291906140b6565b6040516020818303038152906040527ff45d7d2c000000000000000000000000000000000000000000000000000000007bffffffffffffffffffffffffffffffffffffffffffffffffffffffff19166020820180517bffffffffffffffffffffffffffffffffffffffffffffffffffffffff8381831617835250505050612438565b50505050565b61236982826040516024016122e7929190614109565b6040516020818303038152906040527fb60e72cc000000000000000000000000000000000000000000000000000000007bffffffffffffffffffffffffffffffffffffffffffffffffffffffff19166020820180517bffffffffffffffffffffffffffffffffffffffffffffffffffffffff8381831617835250505050612438565b5050565b600081600001549050919050565b612395828260405180602001604052806000815250612747565b5050565b6124338383836040516024016123b193929190614139565b6040516020818303038152906040527fca47c4eb000000000000000000000000000000000000000000000000000000007bffffffffffffffffffffffffffffffffffffffffffffffffffffffff19166020820180517bffffffffffffffffffffffffffffffffffffffffffffffffffffffff8381831617835250505050612438565b505050565b60008151905060006a636f6e736f6c652e6c6f679050602083016000808483855afa5050505050565b50505050565b50505050565b600061248e8473ffffffffffffffffffffffffffffffffffffffff166127a2565b156125e7578373ffffffffffffffffffffffffffffffffffffffff1663150b7a026124b7611969565b8786866040518563ffffffff1660e01b81526004016124d994939291906141cc565b6020604051808303816000875af192505050801561251557506040513d601f19601f82011682018060405250810190612512919061422d565b60015b612597573d8060008114612545576040519150601f19603f3d011682016040523d82523d6000602084013e61254a565b606091505b50600081510361258f576040517f08c379a000000000000000000000000000000000000000000000000000000000815260040161258690613fc0565b60405180910390fd5b805181602001fd5b63150b7a0260e01b7bffffffffffffffffffffffffffffffffffffffffffffffffffffffff1916817bffffffffffffffffffffffffffffffffffffffffffffffffffffffff1916149150506125ec565b600190505b949350505050565b600080600090507a184f03e93ff9f4daa797ed6e38ed64bf6a1f0100000000000000008310612652577a184f03e93ff9f4daa797ed6e38ed64bf6a1f010000000000000000838161264857612647613fe0565b5b0492506040810190505b6d04ee2d6d415b85acef8100000000831061268f576d04ee2d6d415b85acef8100000000838161268557612684613fe0565b5b0492506020810190505b662386f26fc1000083106126be57662386f26fc1000083816126b4576126b3613fe0565b5b0492506010810190505b6305f5e10083106126e7576305f5e10083816126dd576126dc613fe0565b5b0492506008810190505b612710831061270c57612710838161270257612701613fe0565b5b0492506004810190505b6064831061272f576064838161272557612724613fe0565b5b0492506002810190505b600a831061273e576001810190505b80915050919050565b61275183836127c5565b61275e600084848461246d565b61279d576040517f08c379a000000000000000000000000000000000000000000000000000000000815260040161279490613fc0565b60405180910390fd5b505050565b6000808273ffffffffffffffffffffffffffffffffffffffff163b119050919050565b600073ffffffffffffffffffffffffffffffffffffffff168273ffffffffffffffffffffffffffffffffffffffff1603612834576040517f08c379a000000000000000000000000000000000000000000000000000000000815260040161282b906142a6565b60405180910390fd5b61283d81611fbd565b1561287d576040517f08c379a000000000000000000000000000000000000000000000000000000000815260040161287490614312565b60405180910390fd5b61288b600083836001612461565b61289481611fbd565b156128d4576040517f08c379a00000000000000000000000000000000000000000000000000000000081526004016128cb90614312565b60405180910390fd5b6001600360008473ffffffffffffffffffffffffffffffffffffffff1673ffffffffffffffffffffffffffffffffffffffff16815260200190815260200160002060008282540192505081905550816002600083815260200190815260200160002060006101000a81548173ffffffffffffffffffffffffffffffffffffffff021916908373ffffffffffffffffffffffffffffffffffffffff160217905550808273ffffffffffffffffffffffffffffffffffffffff16600073ffffffffffffffffffffffffffffffffffffffff167fddf252ad1be2c89b69c2b068fc378daa952ba7f163c4a11628f55a4df523b3ef60405160405180910390a46129de600083836001612467565b5050565b6040518060200160405280600081525090565b6040518060a0016040528060608152602001606081526020016000815260200160008152602001600081525090565b6040518060c001604052806000815260200160608152602001606081526020016000815260200160008152602001600081525090565b6000819050919050565b612a6d81612a5a565b82525050565b602082016000820151612a896000850182612a64565b50505050565b6000602082019050612aa46000830184612a73565b92915050565b6000604051905090565b600080fd5b600080fd5b60007fffffffff0000000000000000000000000000000000000000000000000000000082169050919050565b612af381612abe565b8114612afe57600080fd5b50565b600081359050612b1081612aea565b92915050565b600060208284031215612b2c57612b2b612ab4565b5b6000612b3a84828501612b01565b91505092915050565b60008115159050919050565b612b5881612b43565b82525050565b6000602082019050612b736000830184612b4f565b92915050565b600081519050919050565b600082825260208201905092915050565b60005b83811015612bb3578082015181840152602081019050612b98565b60008484015250505050565b6000601f19601f8301169050919050565b6000612bdb82612b79565b612be58185612b84565b9350612bf5818560208601612b95565b612bfe81612bbf565b840191505092915050565b600060a0830160008301518482036000860152612c268282612bd0565b91505060208301518482036020860152612c408282612bd0565b9150506040830151612c556040860182612a64565b506060830151612c686060860182612a64565b506080830151612c7b6080860182612a64565b508091505092915050565b60006020820190508181036000830152612ca08184612c09565b905092915050565b600082825260208201905092915050565b6000612cc482612b79565b612cce8185612ca8565b9350612cde818560208601612b95565b612ce781612bbf565b840191505092915050565b60006020820190508181036000830152612d0c8184612cb9565b905092915050565b612d1d81612a5a565b8114612d2857600080fd5b50565b600081359050612d3a81612d14565b92915050565b600060208284031215612d5657612d55612ab4565b5b6000612d6484828501612d2b565b91505092915050565b600073ffffffffffffffffffffffffffffffffffffffff82169050919050565b6000612d9882612d6d565b9050919050565b612da881612d8d565b82525050565b6000602082019050612dc36000830184612d9f565b92915050565b612dd281612d8d565b8114612ddd57600080fd5b50565b600081359050612def81612dc9565b92915050565b60008060408385031215612e0c57612e0b612ab4565b5b6000612e1a85828601612de0565b9250506020612e2b85828601612d2b565b9150509250929050565b600081519050919050565b600082825260208201905092915050565b6000819050602082019050919050565b600060c083016000830151612e796000860182612a64565b5060208301518482036020860152612e918282612bd0565b91505060408301518482036040860152612eab8282612bd0565b9150506060830151612ec06060860182612a64565b506080830151612ed36080860182612a64565b5060a0830151612ee660a0860182612a64565b508091505092915050565b6000612efd8383612e61565b905092915050565b6000602082019050919050565b6000612f1d82612e35565b612f278185612e40565b935083602082028501612f3985612e51565b8060005b85811015612f755784840389528151612f568582612ef1565b9450612f6183612f05565b925060208a01995050600181019050612f3d565b50829750879550505050505092915050565b60006020820190508181036000830152612fa18184612f12565b905092915050565b600080600060608486031215612fc257612fc1612ab4565b5b6000612fd086828701612de0565b9350506020612fe186828701612de0565b9250506040612ff286828701612d2b565b9150509250925092565b60006020828403121561301257613011612ab4565b5b600061302084828501612de0565b91505092915050565b61303281612a5a565b82525050565b600060208201905061304d6000830184613029565b92915050565b61305c81612b43565b811461306757600080fd5b50565b60008135905061307981613053565b92915050565b6000806040838503121561309657613095612ab4565b5b60006130a485828601612de0565b92505060206130b58582860161306a565b9150509250929050565b600080fd5b600080fd5b7f4e487b7100000000000000000000000000000000000000000000000000000000600052604160045260246000fd5b61310182612bbf565b810181811067ffffffffffffffff821117156131205761311f6130c9565b5b80604052505050565b6000613133612aaa565b905061313f82826130f8565b919050565b600067ffffffffffffffff82111561315f5761315e6130c9565b5b61316882612bbf565b9050602081019050919050565b82818337600083830152505050565b600061319761319284613144565b613129565b9050828152602081018484840111156131b3576131b26130c4565b5b6131be848285613175565b509392505050565b600082601f8301126131db576131da6130bf565b5b81356131eb848260208601613184565b91505092915050565b6000806000806080858703121561320e5761320d612ab4565b5b600061321c87828801612de0565b945050602061322d87828801612de0565b935050604061323e87828801612d2b565b925050606085013567ffffffffffffffff81111561325f5761325e612ab9565b5b61326b878288016131c6565b91505092959194509250565b600060c08301600083015161328f6000860182612a64565b50602083015184820360208601526132a78282612bd0565b915050604083015184820360408601526132c18282612bd0565b91505060608301516132d66060860182612a64565b5060808301516132e96080860182612a64565b5060a08301516132fc60a0860182612a64565b508091505092915050565b600060208201905081810360008301526133218184613277565b905092915050565b600080604083850312156133405761333f612ab4565b5b600061334e85828601612de0565b925050602061335f85828601612de0565b9150509250929050565b7f4e487b7100000000000000000000000000000000000000000000000000000000600052602260045260246000fd5b600060028204905060018216806133b057607f821691505b6020821081036133c3576133c2613369565b5b50919050565b7f4552433732313a20617070726f76616c20746f2063757272656e74206f776e6560008201527f7200000000000000000000000000000000000000000000000000000000000000602082015250565b6000613425602183612ca8565b9150613430826133c9565b604082019050919050565b6000602082019050818103600083015261345481613418565b9050919050565b7f4552433732313a20617070726f76652063616c6c6572206973206e6f7420746f60008201527f6b656e206f776e6572206f7220617070726f76656420666f7220616c6c000000602082015250565b60006134b7603d83612ca8565b91506134c28261345b565b604082019050919050565b600060208201905081810360008301526134e6816134aa565b9050919050565b7f4552433732313a2063616c6c6572206973206e6f7420746f6b656e206f776e6560008201527f72206f7220617070726f76656400000000000000000000000000000000000000602082015250565b6000613549602d83612ca8565b9150613554826134ed565b604082019050919050565b600060208201905081810360008301526135788161353c565b9050919050565b7f4552433732313a20696e76616c696420746f6b656e2049440000000000000000600082015250565b60006135b5601883612ca8565b91506135c08261357f565b602082019050919050565b600060208201905081810360008301526135e4816135a8565b9050919050565b7f4552433732313a2061646472657373207a65726f206973206e6f74206120766160008201527f6c6964206f776e65720000000000000000000000000000000000000000000000602082015250565b6000613647602983612ca8565b9150613652826135eb565b604082019050919050565b600060208201905081810360008301526136768161363a565b9050919050565b600081905092915050565b7f7b226e616d65223a220000000000000000000000000000000000000000000000600082015250565b60006136be60098361367d565b91506136c982613688565b600982019050919050565b60006136df82612b79565b6136e9818561367d565b93506136f9818560208601612b95565b80840191505092915050565b7f2d2d4e467420233a200000000000000000000000000000000000000000000000600082015250565b600061373b60098361367d565b915061374682613705565b600982019050919050565b7f222c20226465736372697074696f6e223a20225468697320697320616e204e4660008201527f542074686174206c6574732070656f706c6520706c617920696e20746865206760208201527f616d65204d657461766572736520536c617965722122202c2022696d6167652260408201527f3a20220000000000000000000000000000000000000000000000000000000000606082015250565b60006137f960638361367d565b915061380482613751565b606382019050919050565b7f222c2261747472696275746573223a205b7b2274726169745f74797065223a2060008201527f224865616c746820506f696e7473222c202276616c7565223a20000000000000602082015250565b600061386b603a8361367d565b91506138768261380f565b603a82019050919050565b7f2c20226d61785f76616c7565223a000000000000000000000000000000000000600082015250565b60006138b7600e8361367d565b91506138c282613881565b600e82019050919050565b7f7d2c207b202274726169745f74797065223a202241747461636b2044616d616760008201527f65222c202276616c7565223a2000000000000000000000000000000000000000602082015250565b6000613929602d8361367d565b9150613934826138cd565b602d82019050919050565b7f7d5d7d0000000000000000000000000000000000000000000000000000000000600082015250565b600061397560038361367d565b91506139808261393f565b600382019050919050565b6000613996826136b1565b91506139a282896136d4565b91506139ad8261372e565b91506139b982886136d4565b91506139c4826137ec565b91506139d082876136d4565b91506139db8261385e565b91506139e782866136d4565b91506139f2826138aa565b91506139fe82856136d4565b9150613a098261391c565b9150613a1582846136d4565b9150613a2082613968565b9150819050979650505050505050565b6000613a3c82856136d4565b9150613a4882846136d4565b91508190509392505050565b7f4e487b7100000000000000000000000000000000000000000000000000000000600052601160045260246000fd5b6000613a8e82612a5a565b9150613a9983612a5a565b9250828203905081811115613ab157613ab0613a54565b5b92915050565b7f4e487b7100000000000000000000000000000000000000000000000000000000600052603260045260246000fd5b60008190508160005260206000209050919050565b60006020601f8301049050919050565b600082821b905092915050565b600060088302613b487fffffffffffffffffffffffffffffffffffffffffffffffffffffffffffffffff82613b0b565b613b528683613b0b565b95508019841693508086168417925050509392505050565b6000819050919050565b6000613b8f613b8a613b8584612a5a565b613b6a565b612a5a565b9050919050565b6000819050919050565b613ba983613b74565b613bbd613bb582613b96565b848454613b18565b825550505050565b600090565b613bd2613bc5565b613bdd818484613ba0565b505050565b5b81811015613c0157613bf6600082613bca565b600181019050613be3565b5050565b601f821115613c4657613c1781613ae6565b613c2084613afb565b81016020851015613c2f578190505b613c43613c3b85613afb565b830182613be2565b50505b505050565b600082821c905092915050565b6000613c6960001984600802613c4b565b1980831691505092915050565b6000613c828383613c58565b9150826002028217905092915050565b613c9b82612b79565b67ffffffffffffffff811115613cb457613cb36130c9565b5b613cbe8254613398565b613cc9828285613c05565b600060209050601f831160018114613cfc5760008415613cea578287015190505b613cf48582613c76565b865550613d5c565b601f198416613d0a86613ae6565b60005b82811015613d3257848901518255600182019150602085019450602081019050613d0d565b86831015613d4f5784890151613d4b601f891682613c58565b8355505b6001600288020188555050505b505050505050565b60006080820190508181036000830152613d7e8187612cb9565b90508181036020830152613d928186612cb9565b9050613da16040830185613029565b8181036060830152613db38184612cb9565b905095945050505050565b7f4552433732313a207472616e736665722066726f6d20696e636f72726563742060008201527f6f776e6572000000000000000000000000000000000000000000000000000000602082015250565b6000613e1a602583612ca8565b9150613e2582613dbe565b604082019050919050565b60006020820190508181036000830152613e4981613e0d565b9050919050565b7f4552433732313a207472616e7366657220746f20746865207a65726f2061646460008201527f7265737300000000000000000000000000000000000000000000000000000000602082015250565b6000613eac602483612ca8565b9150613eb782613e50565b604082019050919050565b60006020820190508181036000830152613edb81613e9f565b9050919050565b7f4552433732313a20617070726f766520746f2063616c6c657200000000000000600082015250565b6000613f18601983612ca8565b9150613f2382613ee2565b602082019050919050565b60006020820190508181036000830152613f4781613f0b565b9050919050565b7f4552433732313a207472616e7366657220746f206e6f6e20455243373231526560008201527f63656976657220696d706c656d656e7465720000000000000000000000000000602082015250565b6000613faa603283612ca8565b9150613fb582613f4e565b604082019050919050565b60006020820190508181036000830152613fd981613f9d565b9050919050565b7f4e487b7100000000000000000000000000000000000000000000000000000000600052601260045260246000fd5b600061401a82612a5a565b915061402583612a5a565b925082820190508082111561403d5761403c613a54565b5b92915050565b600061404e82612a5a565b915061405983612a5a565b92508261406957614068613fe0565b5b828204905092915050565b600061407f82612a5a565b915061408a83612a5a565b925082820261409881612a5a565b915082820484148315176140af576140ae613a54565b5b5092915050565b600060808201905081810360008301526140d08187612cb9565b905081810360208301526140e48186612cb9565b90506140f36040830185613029565b6141006060830184613029565b95945050505050565b600060408201905081810360008301526141238185612cb9565b90506141326020830184613029565b9392505050565b600060608201905081810360008301526141538186612cb9565b90506141626020830185613029565b61416f6040830184613029565b949350505050565b600081519050919050565b600082825260208201905092915050565b600061419e82614177565b6141a88185614182565b93506141b8818560208601612b95565b6141c181612bbf565b840191505092915050565b60006080820190506141e16000830187612d9f565b6141ee6020830186612d9f565b6141fb6040830185613029565b818103606083015261420d8184614193565b905095945050505050565b60008151905061422781612aea565b92915050565b60006020828403121561424357614242612ab4565b5b600061425184828501614218565b91505092915050565b7f4552433732313a206d696e7420746f20746865207a65726f2061646472657373600082015250565b6000614290602083612ca8565b915061429b8261425a565b602082019050919050565b600060208201905081810360008301526142bf81614283565b9050919050565b7f4552433732313a20746f6b656e20616c7265616479206d696e74656400000000600082015250565b60006142fc601c83612ca8565b9150614307826142c6565b602082019050919050565b6000602082019050818103600083015261432b816142ef565b905091905056fe426f73732061747461636b656420706c617965722e204e657720506c617965722068703a25730a4142434445464748494a4b4c4d4e4f505152535455565758595a6162636465666768696a6b6c6d6e6f707172737475767778797a303132333435363738392b2f4d696e746564204e667420772f20746f6b656e496420257320616e6420636861726163746572496e646578202573506c617965722061747461636b656420626f73732e204e657720426f73732068703a2025730a506c6179657220772f206368617261637465722025732061626f757420746f2061747461636b2e2048617320257320485020616e64202573204144a2646970667358221220e8092201208a459cfe7ba2cc82b1b94237f34115933c2532f1b976e73952216664736f6c63430008120033446f6e6520696e697469616c697a696e6720257320772f204850202573202c20696d67202573",
  "devdoc": {
    "author": "Prince Sharma",
    "events": {
      "Approval(address,address,uint256)": {
        "details": "Emitted when `owner` enables `approved` to manage the `tokenId` token."
      },
      "ApprovalForAll(address,address,bool)": {
        "details": "Emitted when `owner` enables or disables (`approved`) `operator` to manage all of its assets."
      },
      "Transfer(address,address,uint256)": {
        "details": "Emitted when `tokenId` token is transferred from `from` to `to`."
      }
    },
    "kind": "dev",
    "methods": {
      "approve(address,uint256)": {
        "details": "See {IERC721-approve}."
      },
      "balanceOf(address)": {
        "details": "See {IERC721-balanceOf}."
      },
      "getApproved(uint256)": {
        "details": "See {IERC721-getApproved}."
      },
      "isApprovedForAll(address,address)": {
        "details": "See {IERC721-isApprovedForAll}."
      },
      "mintCharacterNFT(uint256)": {
        "details": "increments the tokenid and return nothing"
      },
      "name()": {
        "details": "See {IERC721Metadata-name}."
      },
      "ownerOf(uint256)": {
        "details": "See {IERC721-ownerOf}."
      },
      "safeTransferFrom(address,address,uint256)": {
        "details": "See {IERC721-safeTransferFrom}."
      },
      "safeTransferFrom(address,address,uint256,bytes)": {
        "details": "See {IERC721-safeTransferFrom}."
      },
      "setApprovalForAll(address,bool)": {
        "details": "See {IERC721-setApprovalForAll}."
      },
      "supportsInterface(bytes4)": {
        "details": "See {IERC165-supportsInterface}."
      },
      "symbol()": {
        "details": "See {IERC721Metadata-symbol}."
      },
      "tokenURI(uint256)": {
        "returns": {
          "_0": "the base-64 encoded url of nft"
        }
      },
      "transferFrom(address,address,uint256)": {
        "details": "See {IERC721-transferFrom}."
      }
    },
    "title": "contract for mint character Nfts",
    "version": 1
  },
  "userdoc": {
    "kind": "user",
    "methods": {
      "mintCharacterNFT(uint256)": {
        "notice": "mints the nft and updates the mapping"
      },
      "tokenURI(uint256)": {
        "notice": "it takes a tokenid and returns the url for your NFT"
      }
    },
    "notice": "you can use this contract for mint NFTs",
    "version": 1
  },
  "storageLayout": {
    "storage": [
      {
        "astId": 25,
        "contract": "contracts/MyEpicGame.sol:MyEpicGame",
        "label": "_name",
        "offset": 0,
        "slot": "0",
        "type": "t_string_storage"
      },
      {
        "astId": 27,
        "contract": "contracts/MyEpicGame.sol:MyEpicGame",
        "label": "_symbol",
        "offset": 0,
        "slot": "1",
        "type": "t_string_storage"
      },
      {
        "astId": 31,
        "contract": "contracts/MyEpicGame.sol:MyEpicGame",
        "label": "_owners",
        "offset": 0,
        "slot": "2",
        "type": "t_mapping(t_uint256,t_address)"
      },
      {
        "astId": 35,
        "contract": "contracts/MyEpicGame.sol:MyEpicGame",
        "label": "_balances",
        "offset": 0,
        "slot": "3",
        "type": "t_mapping(t_address,t_uint256)"
      },
      {
        "astId": 39,
        "contract": "contracts/MyEpicGame.sol:MyEpicGame",
        "label": "_tokenApprovals",
        "offset": 0,
        "slot": "4",
        "type": "t_mapping(t_uint256,t_address)"
      },
      {
        "astId": 45,
        "contract": "contracts/MyEpicGame.sol:MyEpicGame",
        "label": "_operatorApprovals",
        "offset": 0,
        "slot": "5",
        "type": "t_mapping(t_address,t_mapping(t_address,t_bool))"
      },
      {
        "astId": 2697,
        "contract": "contracts/MyEpicGame.sol:MyEpicGame",
        "label": "s_evilBoss",
        "offset": 0,
        "slot": "6",
        "type": "t_struct(bigBoss)2678_storage"
      },
      {
        "astId": 2701,
        "contract": "contracts/MyEpicGame.sol:MyEpicGame",
        "label": "defaultCharacters",
        "offset": 0,
        "slot": "11",
        "type": "t_array(t_struct(characterAttributes)2667_storage)dyn_storage"
      },
      {
        "astId": 2704,
        "contract": "contracts/MyEpicGame.sol:MyEpicGame",
        "label": "s_tokenIds",
        "offset": 0,
        "slot": "12",
        "type": "t_struct(Counter)1492_storage"
      },
      {
        "astId": 2708,
        "contract": "contracts/MyEpicGame.sol:MyEpicGame",
        "label": "s_NFTHolders",
        "offset": 0,
        "slot": "13",
        "type": "t_mapping(t_address,t_uint256)"
      },
      {
        "astId": 2713,
        "contract": "contracts/MyEpicGame.sol:MyEpicGame",
        "label": "s_NFTHolderAttributes",
        "offset": 0,
        "slot": "14",
        "type": "t_mapping(t_uint256,t_struct(characterAttributes)2667_storage)"
      }
    ],
    "types": {
      "t_address": {
        "encoding": "inplace",
        "label": "address",
        "numberOfBytes": "20"
      },
      "t_array(t_struct(characterAttributes)2667_storage)dyn_storage": {
        "base": "t_struct(characterAttributes)2667_storage",
        "encoding": "dynamic_array",
        "label": "struct MyEpicGame.characterAttributes[]",
        "numberOfBytes": "32"
      },
      "t_bool": {
        "encoding": "inplace",
        "label": "bool",
        "numberOfBytes": "1"
      },
      "t_mapping(t_address,t_bool)": {
        "encoding": "mapping",
        "key": "t_address",
        "label": "mapping(address => bool)",
        "numberOfBytes": "32",
        "value": "t_bool"
      },
      "t_mapping(t_address,t_mapping(t_address,t_bool))": {
        "encoding": "mapping",
        "key": "t_address",
        "label": "mapping(address => mapping(address => bool))",
        "numberOfBytes": "32",
        "value": "t_mapping(t_address,t_bool)"
      },
      "t_mapping(t_address,t_uint256)": {
        "encoding": "mapping",
        "key": "t_address",
        "label": "mapping(address => uint256)",
        "numberOfBytes": "32",
        "value": "t_uint256"
      },
      "t_mapping(t_uint256,t_address)": {
        "encoding": "mapping",
        "key": "t_uint256",
        "label": "mapping(uint256 => address)",
        "numberOfBytes": "32",
        "value": "t_address"
      },
      "t_mapping(t_uint256,t_struct(characterAttributes)2667_storage)": {
        "encoding": "mapping",
        "key": "t_uint256",
        "label": "mapping(uint256 => struct MyEpicGame.characterAttributes)",
        "numberOfBytes": "32",
        "value": "t_struct(characterAttributes)2667_storage"
      },
      "t_string_storage": {
        "encoding": "bytes",
        "label": "string",
        "numberOfBytes": "32"
      },
      "t_struct(Counter)1492_storage": {
        "encoding": "inplace",
        "label": "struct Counters.Counter",
        "members": [
          {
            "astId": 1491,
            "contract": "contracts/MyEpicGame.sol:MyEpicGame",
            "label": "_value",
            "offset": 0,
            "slot": "0",
            "type": "t_uint256"
          }
        ],
        "numberOfBytes": "32"
      },
      "t_struct(bigBoss)2678_storage": {
        "encoding": "inplace",
        "label": "struct MyEpicGame.bigBoss",
        "members": [
          {
            "astId": 2669,
            "contract": "contracts/MyEpicGame.sol:MyEpicGame",
            "label": "name",
            "offset": 0,
            "slot": "0",
            "type": "t_string_storage"
          },
          {
            "astId": 2671,
            "contract": "contracts/MyEpicGame.sol:MyEpicGame",
            "label": "imageUri",
            "offset": 0,
            "slot": "1",
            "type": "t_string_storage"
          },
          {
            "astId": 2673,
            "contract": "contracts/MyEpicGame.sol:MyEpicGame",
            "label": "hp",
            "offset": 0,
            "slot": "2",
            "type": "t_uint256"
          },
          {
            "astId": 2675,
            "contract": "contracts/MyEpicGame.sol:MyEpicGame",
            "label": "maxHp",
            "offset": 0,
            "slot": "3",
            "type": "t_uint256"
          },
          {
            "astId": 2677,
            "contract": "contracts/MyEpicGame.sol:MyEpicGame",
            "label": "attackDamage",
            "offset": 0,
            "slot": "4",
            "type": "t_uint256"
          }
        ],
        "numberOfBytes": "160"
      },
      "t_struct(characterAttributes)2667_storage": {
        "encoding": "inplace",
        "label": "struct MyEpicGame.characterAttributes",
        "members": [
          {
            "astId": 2656,
            "contract": "contracts/MyEpicGame.sol:MyEpicGame",
            "label": "index",
            "offset": 0,
            "slot": "0",
            "type": "t_uint256"
          },
          {
            "astId": 2658,
            "contract": "contracts/MyEpicGame.sol:MyEpicGame",
            "label": "name",
            "offset": 0,
            "slot": "1",
            "type": "t_string_storage"
          },
          {
            "astId": 2660,
            "contract": "contracts/MyEpicGame.sol:MyEpicGame",
            "label": "imageUri",
            "offset": 0,
            "slot": "2",
            "type": "t_string_storage"
          },
          {
            "astId": 2662,
            "contract": "contracts/MyEpicGame.sol:MyEpicGame",
            "label": "hp",
            "offset": 0,
            "slot": "3",
            "type": "t_uint256"
          },
          {
            "astId": 2664,
            "contract": "contracts/MyEpicGame.sol:MyEpicGame",
            "label": "attackDamage",
            "offset": 0,
            "slot": "4",
            "type": "t_uint256"
          },
          {
            "astId": 2666,
            "contract": "contracts/MyEpicGame.sol:MyEpicGame",
            "label": "maxHp",
            "offset": 0,
            "slot": "5",
            "type": "t_uint256"
          }
        ],
        "numberOfBytes": "192"
      },
      "t_uint256": {
        "encoding": "inplace",
        "label": "uint256",
        "numberOfBytes": "32"
      }
    }
  }
}