{
  "address": "0x54Bca92bD8b25bc06739515753E3AD1430f20f2e",
  "abi": [
    {
      "inputs": [
        {
          "internalType": "string[]",
          "name": "charactername",
          "type": "string[]"
        },
        {
          "internalType": "string[]",
          "name": "characterImageUri",
          "type": "string[]"
        },
        {
          "internalType": "uint256[]",
          "name": "characterHp",
          "type": "uint256[]"
        },
        {
          "internalType": "uint256[]",
          "name": "characterAttackDamage",
          "type": "uint256[]"
        },
        {
          "internalType": "uint256",
          "name": "bossHp",
          "type": "uint256"
        },
        {
          "internalType": "uint256",
          "name": "bossAttackDamage",
          "type": "uint256"
        },
        {
          "internalType": "address",
          "name": "vrfCoordinatorV2",
          "type": "address"
        },
        {
          "internalType": "uint64",
          "name": "subscriptionId",
          "type": "uint64"
        },
        {
          "internalType": "bytes32",
          "name": "gasLane",
          "type": "bytes32"
        },
        {
          "internalType": "uint32",
          "name": "callbackGasLimit",
          "type": "uint32"
        }
      ],
      "stateMutability": "nonpayable",
      "type": "constructor"
    },
    {
      "inputs": [],
      "name": "ERC721Metadata__URI_QueryFor_NonExistentToken",
      "type": "error"
    },
    {
      "inputs": [
        {
          "internalType": "address",
          "name": "have",
          "type": "address"
        },
        {
          "internalType": "address",
          "name": "want",
          "type": "address"
        }
      ],
      "name": "OnlyCoordinatorCanFulfill",
      "type": "error"
    },
    {
      "inputs": [],
      "name": "lowHp",
      "type": "error"
    },
    {
      "anonymous": false,
      "inputs": [
        {
          "indexed": true,
          "internalType": "address",
          "name": "owner",
          "type": "address"
        },
        {
          "indexed": true,
          "internalType": "address",
          "name": "approved",
          "type": "address"
        },
        {
          "indexed": true,
          "internalType": "uint256",
          "name": "tokenId",
          "type": "uint256"
        }
      ],
      "name": "Approval",
      "type": "event"
    },
    {
      "anonymous": false,
      "inputs": [
        {
          "indexed": true,
          "internalType": "address",
          "name": "owner",
          "type": "address"
        },
        {
          "indexed": true,
          "internalType": "address",
          "name": "operator",
          "type": "address"
        },
        {
          "indexed": false,
          "internalType": "bool",
          "name": "approved",
          "type": "bool"
        }
      ],
      "name": "ApprovalForAll",
      "type": "event"
    },
    {
      "anonymous": false,
      "inputs": [
        {
          "indexed": true,
          "internalType": "address",
          "name": "from",
          "type": "address"
        },
        {
          "indexed": true,
          "internalType": "address",
          "name": "to",
          "type": "address"
        },
        {
          "indexed": true,
          "internalType": "uint256",
          "name": "tokenId",
          "type": "uint256"
        }
      ],
      "name": "Transfer",
      "type": "event"
    },
    {
      "anonymous": false,
      "inputs": [
        {
          "indexed": true,
          "internalType": "address",
          "name": "sender",
          "type": "address"
        },
        {
          "indexed": true,
          "internalType": "uint256",
          "name": "bossHp",
          "type": "uint256"
        },
        {
          "indexed": true,
          "internalType": "uint256",
          "name": "playerHp",
          "type": "uint256"
        }
      ],
      "name": "attackComplete",
      "type": "event"
    },
    {
      "anonymous": false,
      "inputs": [
        {
          "indexed": true,
          "internalType": "address",
          "name": "sender",
          "type": "address"
        },
        {
          "indexed": true,
          "internalType": "uint256",
          "name": "tokenId",
          "type": "uint256"
        },
        {
          "indexed": true,
          "internalType": "uint256",
          "name": "characterIndex",
          "type": "uint256"
        }
      ],
      "name": "characterMintedNft",
      "type": "event"
    },
    {
      "anonymous": false,
      "inputs": [
        {
          "indexed": true,
          "internalType": "uint256",
          "name": "requestId",
          "type": "uint256"
        }
      ],
      "name": "requestedUserCharacter",
      "type": "event"
    },
    {
      "inputs": [
        {
          "internalType": "address",
          "name": "to",
          "type": "address"
        },
        {
          "internalType": "uint256",
          "name": "tokenId",
          "type": "uint256"
        }
      ],
      "name": "approve",
      "outputs": [],
      "stateMutability": "nonpayable",
      "type": "function"
    },
    {
      "inputs": [],
      "name": "attackBoss",
      "outputs": [],
      "stateMutability": "nonpayable",
      "type": "function"
    },
    {
      "inputs": [
        {
          "internalType": "address",
          "name": "owner",
          "type": "address"
        }
      ],
      "name": "balanceOf",
      "outputs": [
        {
          "internalType": "uint256",
          "name": "",
          "type": "uint256"
        }
      ],
      "stateMutability": "view",
      "type": "function"
    },
    {
      "inputs": [],
      "name": "checkIfUserHasNFT",
      "outputs": [
        {
          "components": [
            {
              "internalType": "uint256",
              "name": "index",
              "type": "uint256"
            },
            {
              "internalType": "string",
              "name": "name",
              "type": "string"
            },
            {
              "internalType": "string",
              "name": "imageUri",
              "type": "string"
            },
            {
              "internalType": "uint256",
              "name": "hp",
              "type": "uint256"
            },
            {
              "internalType": "uint256",
              "name": "attackDamage",
              "type": "uint256"
            },
            {
              "internalType": "uint256",
              "name": "maxHp",
              "type": "uint256"
            }
          ],
          "internalType": "struct MyEpicGame.characterAttributes",
          "name": "",
          "type": "tuple"
        }
      ],
      "stateMutability": "view",
      "type": "function"
    },
    {
      "inputs": [],
      "name": "getAlldefaultCharacters",
      "outputs": [
        {
          "components": [
            {
              "internalType": "uint256",
              "name": "index",
              "type": "uint256"
            },
            {
              "internalType": "string",
              "name": "name",
              "type": "string"
            },
            {
              "internalType": "string",
              "name": "imageUri",
              "type": "string"
            },
            {
              "internalType": "uint256",
              "name": "hp",
              "type": "uint256"
            },
            {
              "internalType": "uint256",
              "name": "attackDamage",
              "type": "uint256"
            },
            {
              "internalType": "uint256",
              "name": "maxHp",
              "type": "uint256"
            }
          ],
          "internalType": "struct MyEpicGame.characterAttributes[]",
          "name": "",
          "type": "tuple[]"
        }
      ],
      "stateMutability": "view",
      "type": "function"
    },
    {
      "inputs": [
        {
          "internalType": "uint256",
          "name": "tokenId",
          "type": "uint256"
        }
      ],
      "name": "getApproved",
      "outputs": [
        {
          "internalType": "address",
          "name": "",
          "type": "address"
        }
      ],
      "stateMutability": "view",
      "type": "function"
    },
    {
      "inputs": [],
      "name": "getTokenId",
      "outputs": [
        {
          "components": [
            {
              "internalType": "uint256",
              "name": "_value",
              "type": "uint256"
            }
          ],
          "internalType": "struct Counters.Counter",
          "name": "",
          "type": "tuple"
        }
      ],
      "stateMutability": "view",
      "type": "function"
    },
    {
      "inputs": [],
      "name": "getbigBoss",
      "outputs": [
        {
          "components": [
            {
              "internalType": "uint256",
              "name": "hp",
              "type": "uint256"
            },
            {
              "internalType": "uint256",
              "name": "attackDamage",
              "type": "uint256"
            },
            {
              "internalType": "uint256",
              "name": "maxHp",
              "type": "uint256"
            }
          ],
          "internalType": "struct MyEpicGame.evilBoss",
          "name": "",
          "type": "tuple"
        }
      ],
      "stateMutability": "view",
      "type": "function"
    },
    {
      "inputs": [
        {
          "internalType": "address",
          "name": "owner",
          "type": "address"
        },
        {
          "internalType": "address",
          "name": "operator",
          "type": "address"
        }
      ],
      "name": "isApprovedForAll",
      "outputs": [
        {
          "internalType": "bool",
          "name": "",
          "type": "bool"
        }
      ],
      "stateMutability": "view",
      "type": "function"
    },
    {
      "inputs": [],
      "name": "mintCharacterNFT",
      "outputs": [],
      "stateMutability": "nonpayable",
      "type": "function"
    },
    {
      "inputs": [],
      "name": "name",
      "outputs": [
        {
          "internalType": "string",
          "name": "",
          "type": "string"
        }
      ],
      "stateMutability": "view",
      "type": "function"
    },
    {
      "inputs": [
        {
          "internalType": "uint256",
          "name": "tokenId",
          "type": "uint256"
        }
      ],
      "name": "ownerOf",
      "outputs": [
        {
          "internalType": "address",
          "name": "",
          "type": "address"
        }
      ],
      "stateMutability": "view",
      "type": "function"
    },
    {
      "inputs": [
        {
          "internalType": "uint256",
          "name": "requestId",
          "type": "uint256"
        },
        {
          "internalType": "uint256[]",
          "name": "randomWords",
          "type": "uint256[]"
        }
      ],
      "name": "rawFulfillRandomWords",
      "outputs": [],
      "stateMutability": "nonpayable",
      "type": "function"
    },
    {
      "inputs": [],
      "name": "requestRandomNumber",
      "outputs": [],
      "stateMutability": "nonpayable",
      "type": "function"
    },
    {
      "inputs": [
        {
          "internalType": "address",
          "name": "from",
          "type": "address"
        },
        {
          "internalType": "address",
          "name": "to",
          "type": "address"
        },
        {
          "internalType": "uint256",
          "name": "tokenId",
          "type": "uint256"
        }
      ],
      "name": "safeTransferFrom",
      "outputs": [],
      "stateMutability": "nonpayable",
      "type": "function"
    },
    {
      "inputs": [
        {
          "internalType": "address",
          "name": "from",
          "type": "address"
        },
        {
          "internalType": "address",
          "name": "to",
          "type": "address"
        },
        {
          "internalType": "uint256",
          "name": "tokenId",
          "type": "uint256"
        },
        {
          "internalType": "bytes",
          "name": "data",
          "type": "bytes"
        }
      ],
      "name": "safeTransferFrom",
      "outputs": [],
      "stateMutability": "nonpayable",
      "type": "function"
    },
    {
      "inputs": [
        {
          "internalType": "address",
          "name": "operator",
          "type": "address"
        },
        {
          "internalType": "bool",
          "name": "approved",
          "type": "bool"
        }
      ],
      "name": "setApprovalForAll",
      "outputs": [],
      "stateMutability": "nonpayable",
      "type": "function"
    },
    {
      "inputs": [
        {
          "internalType": "bytes4",
          "name": "interfaceId",
          "type": "bytes4"
        }
      ],
      "name": "supportsInterface",
      "outputs": [
        {
          "internalType": "bool",
          "name": "",
          "type": "bool"
        }
      ],
      "stateMutability": "view",
      "type": "function"
    },
    {
      "inputs": [],
      "name": "symbol",
      "outputs": [
        {
          "internalType": "string",
          "name": "",
          "type": "string"
        }
      ],
      "stateMutability": "view",
      "type": "function"
    },
    {
      "inputs": [
        {
          "internalType": "uint256",
          "name": "_tokenId",
          "type": "uint256"
        }
      ],
      "name": "tokenURI",
      "outputs": [
        {
          "internalType": "string",
          "name": "",
          "type": "string"
        }
      ],
      "stateMutability": "view",
      "type": "function"
    },
    {
      "inputs": [
        {
          "internalType": "address",
          "name": "from",
          "type": "address"
        },
        {
          "internalType": "address",
          "name": "to",
          "type": "address"
        },
        {
          "internalType": "uint256",
          "name": "tokenId",
          "type": "uint256"
        }
      ],
      "name": "transferFrom",
      "outputs": [],
      "stateMutability": "nonpayable",
      "type": "function"
    }
  ],
  "transactionHash": "0xa986320b731b8435d9244568474db30ad7de4db1332dd6c97b83941199fcdd74",
  "args": [
    [
      "asac_schrader",
      "deadpool",
      "thomas_shelby",
      "shinchan",
      "jesse_pinkman",
      "mr_bean"
    ],
    [
      "https://ipfs.io/ipfs/QmXzfPP7J8qFTRmaYeY5CJ3mUU91MiBNHp2g4QRncxsmTy?filename=asac_schrader.webp",
      "https://ipfs.io/ipfs/QmU2ZS3JuHVQgCKcFRZQNVWXvkVtq9r8uyGu3ntsCKf5C2?filename=deadpool.jpg",
      "https://ipfs.io/ipfs/QmZfJjNCNBMEq2uAjmC4NiFYfHUgc17iSUwGVqTH8nwiYd?filename=thomas_shelby.jpg",
      "https://ipfs.io/ipfs/QmQv2pFohZEEQpmSCrAEukUDiMmtP8hgUxiXTU7T4wAt1N?filename=shinchan.webp",
      "https://ipfs.io/ipfs/QmQEFohJnJ5z49awTap1r86tn5A8hAr3V2QPzCjacmE43g?filename=jesse_pinkman.jpg",
      "https://ipfs.io/ipfs/QmSJnZBQuihoLxqkKiESdWJDh2NwoqpabPAMc97nkX9RUF?filename=Mr_bean.jpg"
    ],
    [
      300,
      500,
      400,
      350,
      400,
      450
    ],
    [
      350,
      400,
      500,
      450,
      300,
      400
    ],
    3000,
    500,
    "0x8103B0A8A00be2DDC778e6e7eaa21791Cd364625",
    "928",
    "0x474e34a077df58807dbe9c96d3c009b23b3c6d0cce433e59bbf5b34f823bc56c",
    "500000"
  ],
  "numDeployments": 4,
  "solcInputHash": "4f504b83ee89f50a556edc91cb34bdb9",
  "bytecode": "0x6101206040523480156200001257600080fd5b506040516200571a3803806200571a833981810160405281019062000038919062000ab9565b836040518060400160405280600681526020017f4845524f455300000000000000000000000000000000000000000000000000008152506040518060400160405280600481526020017f4845524f000000000000000000000000000000000000000000000000000000008152508160009081620000b6919062000e6c565b508060019081620000c8919062000e6c565b5050508073ffffffffffffffffffffffffffffffffffffffff1660808173ffffffffffffffffffffffffffffffffffffffff16815250505060405180606001604052808781526020018681526020018781525060066000820151816000015560208201518160010155604082015181600201559050508063ffffffff166101008163ffffffff16815250508267ffffffffffffffff1660e08167ffffffffffffffff16815250508160c081815250508373ffffffffffffffffffffffffffffffffffffffff1660a08173ffffffffffffffffffffffffffffffffffffffff168152505060005b8a51811015620004e05760096040518060c001604052808381526020018d8481518110620001e157620001e062000f53565b5b602002602001015181526020018c848151811062000204576200020362000f53565b5b602002602001015181526020018b848151811062000227576200022662000f53565b5b602002602001015181526020018a84815181106200024a576200024962000f53565b5b602002602001015181526020018b84815181106200026d576200026c62000f53565b5b60200260200101518152509080600181540180825580915050600190039060005260206000209060060201600090919091909150600082015181600001556020820151816001019081620002c2919062000e6c565b506040820151816002019081620002da919062000e6c565b50606082015181600301556080820151816004015560a08201518160050155505060006009828154811062000314576200031362000f53565b5b90600052602060002090600602016040518060c001604052908160008201548152602001600182018054620003499062000c65565b80601f0160208091040260200160405190810160405280929190818152602001828054620003779062000c65565b8015620003c85780601f106200039c57610100808354040283529160200191620003c8565b820191906000526020600020905b815481529060010190602001808311620003aa57829003601f168201915b50505050508152602001600282018054620003e39062000c65565b80601f0160208091040260200160405190810160405280929190818152602001828054620004119062000c65565b8015620004625780601f10620004365761010080835404028352916020019162000462565b820191906000526020600020905b8154815290600101906020018083116200044457829003601f168201915b5050505050815260200160038201548152602001600482015481526020016005820154815250509050620004c9604051806060016040528060268152602001620056f4602691398260200151836060015184604001516200050860201b620017fe1760201c565b508080620004d79062000fb1565b915050620001ae565b50620004f8600b620005b460201b620018a01760201c565b50505050505050505050620010c3565b620005ae8484848460405160240162000525949392919062001061565b6040516020818303038152906040527f5d1a971a000000000000000000000000000000000000000000000000000000007bffffffffffffffffffffffffffffffffffffffffffffffffffffffff19166020820180517bffffffffffffffffffffffffffffffffffffffffffffffffffffffff8381831617835250505050620005ca60201b60201c565b50505050565b6001816000016000828254019250508190555050565b60008151905060006a636f6e736f6c652e6c6f679050602083016000808483855afa5050505050565b6000604051905090565b600080fd5b600080fd5b600080fd5b6000601f19601f8301169050919050565b7f4e487b7100000000000000000000000000000000000000000000000000000000600052604160045260246000fd5b62000657826200060c565b810181811067ffffffffffffffff821117156200067957620006786200061d565b5b80604052505050565b60006200068e620005f3565b90506200069c82826200064c565b919050565b600067ffffffffffffffff821115620006bf57620006be6200061d565b5b602082029050602081019050919050565b600080fd5b600080fd5b600067ffffffffffffffff821115620006f857620006f76200061d565b5b62000703826200060c565b9050602081019050919050565b60005b838110156200073057808201518184015260208101905062000713565b60008484015250505050565b6000620007536200074d84620006da565b62000682565b905082815260208101848484011115620007725762000771620006d5565b5b6200077f84828562000710565b509392505050565b600082601f8301126200079f576200079e62000607565b5b8151620007b18482602086016200073c565b91505092915050565b6000620007d1620007cb84620006a1565b62000682565b90508083825260208201905060208402830185811115620007f757620007f6620006d0565b5b835b818110156200084557805167ffffffffffffffff81111562000820576200081f62000607565b5b8086016200082f898262000787565b85526020850194505050602081019050620007f9565b5050509392505050565b600082601f83011262000867576200086662000607565b5b815162000879848260208601620007ba565b91505092915050565b600067ffffffffffffffff821115620008a0576200089f6200061d565b5b602082029050602081019050919050565b6000819050919050565b620008c681620008b1565b8114620008d257600080fd5b50565b600081519050620008e681620008bb565b92915050565b600062000903620008fd8462000882565b62000682565b90508083825260208201905060208402830185811115620009295762000928620006d0565b5b835b81811015620009565780620009418882620008d5565b8452602084019350506020810190506200092b565b5050509392505050565b600082601f83011262000978576200097762000607565b5b81516200098a848260208601620008ec565b91505092915050565b600073ffffffffffffffffffffffffffffffffffffffff82169050919050565b6000620009c08262000993565b9050919050565b620009d281620009b3565b8114620009de57600080fd5b50565b600081519050620009f281620009c7565b92915050565b600067ffffffffffffffff82169050919050565b62000a1781620009f8565b811462000a2357600080fd5b50565b60008151905062000a378162000a0c565b92915050565b6000819050919050565b62000a528162000a3d565b811462000a5e57600080fd5b50565b60008151905062000a728162000a47565b92915050565b600063ffffffff82169050919050565b62000a938162000a78565b811462000a9f57600080fd5b50565b60008151905062000ab38162000a88565b92915050565b6000806000806000806000806000806101408b8d03121562000ae05762000adf620005fd565b5b60008b015167ffffffffffffffff81111562000b015762000b0062000602565b5b62000b0f8d828e016200084f565b9a505060208b015167ffffffffffffffff81111562000b335762000b3262000602565b5b62000b418d828e016200084f565b99505060408b015167ffffffffffffffff81111562000b655762000b6462000602565b5b62000b738d828e0162000960565b98505060608b015167ffffffffffffffff81111562000b975762000b9662000602565b5b62000ba58d828e0162000960565b975050608062000bb88d828e01620008d5565b96505060a062000bcb8d828e01620008d5565b95505060c062000bde8d828e01620009e1565b94505060e062000bf18d828e0162000a26565b93505061010062000c058d828e0162000a61565b92505061012062000c198d828e0162000aa2565b9150509295989b9194979a5092959850565b600081519050919050565b7f4e487b7100000000000000000000000000000000000000000000000000000000600052602260045260246000fd5b6000600282049050600182168062000c7e57607f821691505b60208210810362000c945762000c9362000c36565b5b50919050565b60008190508160005260206000209050919050565b60006020601f8301049050919050565b600082821b905092915050565b60006008830262000cfe7fffffffffffffffffffffffffffffffffffffffffffffffffffffffffffffffff8262000cbf565b62000d0a868362000cbf565b95508019841693508086168417925050509392505050565b6000819050919050565b600062000d4d62000d4762000d4184620008b1565b62000d22565b620008b1565b9050919050565b6000819050919050565b62000d698362000d2c565b62000d8162000d788262000d54565b84845462000ccc565b825550505050565b600090565b62000d9862000d89565b62000da581848462000d5e565b505050565b5b8181101562000dcd5762000dc160008262000d8e565b60018101905062000dab565b5050565b601f82111562000e1c5762000de68162000c9a565b62000df18462000caf565b8101602085101562000e01578190505b62000e1962000e108562000caf565b83018262000daa565b50505b505050565b600082821c905092915050565b600062000e416000198460080262000e21565b1980831691505092915050565b600062000e5c838362000e2e565b9150826002028217905092915050565b62000e778262000c2b565b67ffffffffffffffff81111562000e935762000e926200061d565b5b62000e9f825462000c65565b62000eac82828562000dd1565b600060209050601f83116001811462000ee4576000841562000ecf578287015190505b62000edb858262000e4e565b86555062000f4b565b601f19841662000ef48662000c9a565b60005b8281101562000f1e5784890151825560018201915060208501945060208101905062000ef7565b8683101562000f3e578489015162000f3a601f89168262000e2e565b8355505b6001600288020188555050505b505050505050565b7f4e487b7100000000000000000000000000000000000000000000000000000000600052603260045260246000fd5b7f4e487b7100000000000000000000000000000000000000000000000000000000600052601160045260246000fd5b600062000fbe82620008b1565b91507fffffffffffffffffffffffffffffffffffffffffffffffffffffffffffffffff820362000ff35762000ff262000f82565b5b600182019050919050565b600082825260208201905092915050565b60006200101c8262000c2b565b62001028818562000ffe565b93506200103a81856020860162000710565b62001045816200060c565b840191505092915050565b6200105b81620008b1565b82525050565b600060808201905081810360008301526200107d81876200100f565b905081810360208301526200109381866200100f565b9050620010a4604083018562001050565b8181036060830152620010b881846200100f565b905095945050505050565b60805160a05160c05160e051610100516145e56200110f6000396000610ef101526000610ece01526000610ead01526000610e7101526000818161087801526108cc01526145e56000f3fe608060405234801561001057600080fd5b50600436106101375760003560e01c806370a08231116100b8578063b88d4fde1161007c578063b88d4fde14610314578063c87b56dd14610330578063c8cf27f414610360578063cdc920c81461037e578063d4f24c5b1461039c578063e985e9c5146103a657610137565b806370a082311461029657806374bd425d146102c65780638678a7b2146102d057806395d89b41146102da578063a22cb465146102f857610137565b8063105474f6116100ff578063105474f6146101f45780631fe543e31461021257806323b872dd1461022e57806342842e0e1461024a5780636352211e1461026657610137565b8063010a38f51461013c57806301ffc9a71461015a57806306fdde031461018a578063081812fc146101a8578063095ea7b3146101d8575b600080fd5b6101446103d6565b6040516101519190612a5c565b60405180910390f35b610174600480360381019061016f9190612ae3565b6103fa565b6040516101819190612b2b565b60405180910390f35b6101926104dc565b60405161019f9190612bd6565b60405180910390f35b6101c260048036038101906101bd9190612c24565b61056e565b6040516101cf9190612c92565b60405180910390f35b6101f260048036038101906101ed9190612cd9565b6105b4565b005b6101fc6106cb565b6040516102099190612eb5565b60405180910390f35b61022c6004803603810190610227919061301f565b610876565b005b6102486004803603810190610243919061307b565b610936565b005b610264600480360381019061025f919061307b565b610996565b005b610280600480360381019061027b9190612c24565b6109b6565b60405161028d9190612c92565b60405180910390f35b6102b060048036038101906102ab91906130ce565b610a3c565b6040516102bd919061310a565b60405180910390f35b6102ce610af3565b005b6102d8610e6d565b005b6102e2610fa7565b6040516102ef9190612bd6565b60405180910390f35b610312600480360381019061030d9190613151565b611039565b005b61032e60048036038101906103299190613246565b61104f565b005b61034a60048036038101906103459190612c24565b6110b1565b6040516103579190612bd6565b60405180910390f35b610368611342565b6040516103759190613359565b60405180910390f35b61038661151a565b60405161039391906133bd565b60405180910390f35b6103a4611552565b005b6103c060048036038101906103bb91906133d8565b61176a565b6040516103cd9190612b2b565b60405180910390f35b6103de6129bd565b600b604051806020016040529081600082015481525050905090565b60007f80ac58cd000000000000000000000000000000000000000000000000000000007bffffffffffffffffffffffffffffffffffffffffffffffffffffffff1916827bffffffffffffffffffffffffffffffffffffffffffffffffffffffff191614806104c557507f5b5e139f000000000000000000000000000000000000000000000000000000007bffffffffffffffffffffffffffffffffffffffffffffffffffffffff1916827bffffffffffffffffffffffffffffffffffffffffffffffffffffffff1916145b806104d557506104d4826118b6565b5b9050919050565b6060600080546104eb90613447565b80601f016020809104026020016040519081016040528092919081815260200182805461051790613447565b80156105645780601f1061053957610100808354040283529160200191610564565b820191906000526020600020905b81548152906001019060200180831161054757829003601f168201915b5050505050905090565b600061057982611920565b6004600083815260200190815260200160002060009054906101000a900473ffffffffffffffffffffffffffffffffffffffff169050919050565b60006105bf826109b6565b90508073ffffffffffffffffffffffffffffffffffffffff168373ffffffffffffffffffffffffffffffffffffffff160361062f576040517f08c379a0000000000000000000000000000000000000000000000000000000008152600401610626906134ea565b60405180910390fd5b8073ffffffffffffffffffffffffffffffffffffffff1661064e61196b565b73ffffffffffffffffffffffffffffffffffffffff16148061067d575061067c8161067761196b565b61176a565b5b6106bc576040517f08c379a00000000000000000000000000000000000000000000000000000000081526004016106b39061357c565b60405180910390fd5b6106c68383611973565b505050565b60606009805480602002602001604051908101604052809291908181526020016000905b8282101561086d57838290600052602060002090600602016040518060c00160405290816000820154815260200160018201805461072c90613447565b80601f016020809104026020016040519081016040528092919081815260200182805461075890613447565b80156107a55780601f1061077a576101008083540402835291602001916107a5565b820191906000526020600020905b81548152906001019060200180831161078857829003601f168201915b505050505081526020016002820180546107be90613447565b80601f01602080910402602001604051908101604052809291908181526020018280546107ea90613447565b80156108375780601f1061080c57610100808354040283529160200191610837565b820191906000526020600020905b81548152906001019060200180831161081a57829003601f168201915b505050505081526020016003820154815260200160048201548152602001600582015481525050815260200190600101906106ef565b50505050905090565b7f000000000000000000000000000000000000000000000000000000000000000073ffffffffffffffffffffffffffffffffffffffff163373ffffffffffffffffffffffffffffffffffffffff161461092857337f00000000000000000000000000000000000000000000000000000000000000006040517f1cf993f400000000000000000000000000000000000000000000000000000000815260040161091f92919061359c565b60405180910390fd5b6109328282611a2c565b5050565b61094761094161196b565b82611aa7565b610986576040517f08c379a000000000000000000000000000000000000000000000000000000000815260040161097d90613637565b60405180910390fd5b610991838383611b3c565b505050565b6109b18383836040518060200160405280600081525061104f565b505050565b6000806109c283611e35565b9050600073ffffffffffffffffffffffffffffffffffffffff168173ffffffffffffffffffffffffffffffffffffffff1603610a33576040517f08c379a0000000000000000000000000000000000000000000000000000000008152600401610a2a906136a3565b60405180910390fd5b80915050919050565b60008073ffffffffffffffffffffffffffffffffffffffff168273ffffffffffffffffffffffffffffffffffffffff1603610aac576040517f08c379a0000000000000000000000000000000000000000000000000000000008152600401610aa390613735565b60405180910390fd5b600360008373ffffffffffffffffffffffffffffffffffffffff1673ffffffffffffffffffffffffffffffffffffffff168152602001908152602001600020549050919050565b6000600a549050610b3b6040518060400160405280601c81526020017f696e646578206f66204e667420746f206265206d696e746564203a2000000000815250600a54611e72565b6000610b47600b611f0e565b9050610b533382611f1c565b6040518060c0016040528083815260200160098481548110610b7857610b77613755565b5b90600052602060002090600602016001018054610b9490613447565b80601f0160208091040260200160405190810160405280929190818152602001828054610bc090613447565b8015610c0d5780601f10610be257610100808354040283529160200191610c0d565b820191906000526020600020905b815481529060010190602001808311610bf057829003601f168201915b5050505050815260200160098481548110610c2b57610c2a613755565b5b90600052602060002090600602016002018054610c4790613447565b80601f0160208091040260200160405190810160405280929190818152602001828054610c7390613447565b8015610cc05780601f10610c9557610100808354040283529160200191610cc0565b820191906000526020600020905b815481529060010190602001808311610ca357829003601f168201915b5050505050815260200160098481548110610cde57610cdd613755565b5b906000526020600020906006020160030154815260200160098481548110610d0957610d08613755565b5b906000526020600020906006020160040154815260200160098481548110610d3457610d33613755565b5b906000526020600020906006020160050154815250600d6000838152602001908152602001600020600082015181600001556020820151816001019081610d7b9190613930565b506040820151816002019081610d919190613930565b50606082015181600301556080820151816004015560a08201518160050155905050610dd66040518060600160405280602e815260200161455d602e91398284611f3a565b80600c60003373ffffffffffffffffffffffffffffffffffffffff1673ffffffffffffffffffffffffffffffffffffffff16815260200190815260200160002081905550610e24600b6118a0565b81813373ffffffffffffffffffffffffffffffffffffffff167f1c303622a0278ac56a75c656e4d50eeba5bb1e20c526fdbad47c488a90f5878360405160405180910390a45050565b60007f000000000000000000000000000000000000000000000000000000000000000073ffffffffffffffffffffffffffffffffffffffff16635d3b1d307f00000000000000000000000000000000000000000000000000000000000000007f000000000000000000000000000000000000000000000000000000000000000060037f000000000000000000000000000000000000000000000000000000000000000060016040518663ffffffff1660e01b8152600401610f32959493929190613a7a565b6020604051808303816000875af1158015610f51573d6000803e3d6000fd5b505050506040513d601f19601f82011682018060405250810190610f759190613ae2565b9050807f4731340dbb30cb13bf9ea6fe832162159b6996d69b2638699a5642016d62a30860405160405180910390a250565b606060018054610fb690613447565b80601f0160208091040260200160405190810160405280929190818152602001828054610fe290613447565b801561102f5780601f106110045761010080835404028352916020019161102f565b820191906000526020600020905b81548152906001019060200180831161101257829003601f168201915b5050505050905090565b61104b61104461196b565b8383611fd9565b5050565b61106061105a61196b565b83611aa7565b61109f576040517f08c379a000000000000000000000000000000000000000000000000000000000815260040161109690613637565b60405180910390fd5b6110ab84848484612145565b50505050565b60606110bc826121a1565b6110f2576040517f6df5edae00000000000000000000000000000000000000000000000000000000815260040160405180910390fd5b6000600d60008481526020019081526020016000206040518060c00160405290816000820154815260200160018201805461112c90613447565b80601f016020809104026020016040519081016040528092919081815260200182805461115890613447565b80156111a55780601f1061117a576101008083540402835291602001916111a5565b820191906000526020600020905b81548152906001019060200180831161118857829003601f168201915b505050505081526020016002820180546111be90613447565b80601f01602080910402602001604051908101604052809291908181526020018280546111ea90613447565b80156112375780601f1061120c57610100808354040283529160200191611237565b820191906000526020600020905b81548152906001019060200180831161121a57829003601f168201915b5050505050815260200160038201548152602001600482015481526020016005820154815250509050600061126f82606001516121e2565b905060006112808360a001516121e2565b9050600061129184608001516121e2565b905060006040518060400160405280601d81526020017f646174613a6170706c69636174696f6e2f6a736f6e3b6261736536342c0000008152509050600061131186602001516112e08a6121e2565b88604001518888886040516020016112fd96959493929190613e1d565b6040516020818303038152906040526122b0565b90508181604051602001611326929190613ec2565b6040516020818303038152906040529650505050505050919050565b61134a6129d0565b6000600c60003373ffffffffffffffffffffffffffffffffffffffff1673ffffffffffffffffffffffffffffffffffffffff168152602001908152602001600020549050600081111561150957600d60008281526020019081526020016000206040518060c0016040529081600082015481526020016001820180546113cf90613447565b80601f01602080910402602001604051908101604052809291908181526020018280546113fb90613447565b80156114485780601f1061141d57610100808354040283529160200191611448565b820191906000526020600020905b81548152906001019060200180831161142b57829003601f168201915b5050505050815260200160028201805461146190613447565b80601f016020809104026020016040519081016040528092919081815260200182805461148d90613447565b80156114da5780601f106114af576101008083540402835291602001916114da565b820191906000526020600020905b8154815290600101906020018083116114bd57829003601f168201915b505050505081526020016003820154815260200160048201548152602001600582015481525050915050611517565b6115116129d0565b80925050505b90565b611522612a06565b60066040518060600160405290816000820154815260200160018201548152602001600282015481525050905090565b6000600c60003373ffffffffffffffffffffffffffffffffffffffff1673ffffffffffffffffffffffffffffffffffffffff1681526020019081526020016000205490506000600d600083815260200190815260200160002090506115f76040518060400160405280601b81526020017f426f73732025732068617320257320485020616e642025732041440000000000815250600660000154600660010154611f3a565b600081600301541115806116115750600060066000015411155b15611648576040517f4bd4766400000000000000000000000000000000000000000000000000000000815260040160405180910390fd5b8060040154600660000154101561166957600060066000018190555061168a565b8060040154600660000160008282546116829190613f15565b925050819055505b600660010154816003015410156116aa57600081600301819055506116cb565b6006600101548160030160008282546116c39190613f15565b925050819055505b6116f260405180606001604052806025815260200161458b60259139600660000154611e72565b6117186040518060600160405280602781526020016144f6602791398260030154611e72565b80600301546006600001543373ffffffffffffffffffffffffffffffffffffffff167fd6386a7965b8bdb833e88dd438ceec1373819ae98011196a44540906c112ce5160405160405180910390a45050565b6000600560008473ffffffffffffffffffffffffffffffffffffffff1673ffffffffffffffffffffffffffffffffffffffff16815260200190815260200160002060008373ffffffffffffffffffffffffffffffffffffffff1673ffffffffffffffffffffffffffffffffffffffff16815260200190815260200160002060009054906101000a900460ff16905092915050565b61189a848484846040516024016118189493929190613f49565b6040516020818303038152906040527f5d1a971a000000000000000000000000000000000000000000000000000000007bffffffffffffffffffffffffffffffffffffffffffffffffffffffff19166020820180517bffffffffffffffffffffffffffffffffffffffffffffffffffffffff8381831617835250505050612413565b50505050565b6001816000016000828254019250508190555050565b60007f01ffc9a7000000000000000000000000000000000000000000000000000000007bffffffffffffffffffffffffffffffffffffffffffffffffffffffff1916827bffffffffffffffffffffffffffffffffffffffffffffffffffffffff1916149050919050565b611929816121a1565b611968576040517f08c379a000000000000000000000000000000000000000000000000000000000815260040161195f906136a3565b60405180910390fd5b50565b600033905090565b816004600083815260200190815260200160002060006101000a81548173ffffffffffffffffffffffffffffffffffffffff021916908373ffffffffffffffffffffffffffffffffffffffff160217905550808273ffffffffffffffffffffffffffffffffffffffff166119e6836109b6565b73ffffffffffffffffffffffffffffffffffffffff167f8c5be1e5ebec7d5bd14f71427d1e84f3dd0314c0f7b2291e5b200ac8c7c3b92560405160405180910390a45050565b600060098054905082600081518110611a4857611a47613755565b5b6020026020010151611a5a9190613fd2565b9050611a9b6040518060400160405280601181526020017f72616e646f6d696e646578206973203a2000000000000000000000000000000081525082611e72565b80600a81905550505050565b600080611ab3836109b6565b90508073ffffffffffffffffffffffffffffffffffffffff168473ffffffffffffffffffffffffffffffffffffffff161480611af55750611af4818561176a565b5b80611b3357508373ffffffffffffffffffffffffffffffffffffffff16611b1b8461056e565b73ffffffffffffffffffffffffffffffffffffffff16145b91505092915050565b8273ffffffffffffffffffffffffffffffffffffffff16611b5c826109b6565b73ffffffffffffffffffffffffffffffffffffffff1614611bb2576040517f08c379a0000000000000000000000000000000000000000000000000000000008152600401611ba990614075565b60405180910390fd5b600073ffffffffffffffffffffffffffffffffffffffff168273ffffffffffffffffffffffffffffffffffffffff1603611c21576040517f08c379a0000000000000000000000000000000000000000000000000000000008152600401611c1890614107565b60405180910390fd5b611c2e838383600161243c565b8273ffffffffffffffffffffffffffffffffffffffff16611c4e826109b6565b73ffffffffffffffffffffffffffffffffffffffff1614611ca4576040517f08c379a0000000000000000000000000000000000000000000000000000000008152600401611c9b90614075565b60405180910390fd5b6004600082815260200190815260200160002060006101000a81549073ffffffffffffffffffffffffffffffffffffffff02191690556001600360008573ffffffffffffffffffffffffffffffffffffffff1673ffffffffffffffffffffffffffffffffffffffff168152602001908152602001600020600082825403925050819055506001600360008473ffffffffffffffffffffffffffffffffffffffff1673ffffffffffffffffffffffffffffffffffffffff16815260200190815260200160002060008282540192505081905550816002600083815260200190815260200160002060006101000a81548173ffffffffffffffffffffffffffffffffffffffff021916908373ffffffffffffffffffffffffffffffffffffffff160217905550808273ffffffffffffffffffffffffffffffffffffffff168473ffffffffffffffffffffffffffffffffffffffff167fddf252ad1be2c89b69c2b068fc378daa952ba7f163c4a11628f55a4df523b3ef60405160405180910390a4611e308383836001612442565b505050565b60006002600083815260200190815260200160002060009054906101000a900473ffffffffffffffffffffffffffffffffffffffff169050919050565b611f0a8282604051602401611e88929190614127565b6040516020818303038152906040527fb60e72cc000000000000000000000000000000000000000000000000000000007bffffffffffffffffffffffffffffffffffffffffffffffffffffffff19166020820180517bffffffffffffffffffffffffffffffffffffffffffffffffffffffff8381831617835250505050612413565b5050565b600081600001549050919050565b611f36828260405180602001604052806000815250612448565b5050565b611fd4838383604051602401611f5293929190614157565b6040516020818303038152906040527fca47c4eb000000000000000000000000000000000000000000000000000000007bffffffffffffffffffffffffffffffffffffffffffffffffffffffff19166020820180517bffffffffffffffffffffffffffffffffffffffffffffffffffffffff8381831617835250505050612413565b505050565b8173ffffffffffffffffffffffffffffffffffffffff168373ffffffffffffffffffffffffffffffffffffffff1603612047576040517f08c379a000000000000000000000000000000000000000000000000000000000815260040161203e906141e1565b60405180910390fd5b80600560008573ffffffffffffffffffffffffffffffffffffffff1673ffffffffffffffffffffffffffffffffffffffff16815260200190815260200160002060008473ffffffffffffffffffffffffffffffffffffffff1673ffffffffffffffffffffffffffffffffffffffff16815260200190815260200160002060006101000a81548160ff0219169083151502179055508173ffffffffffffffffffffffffffffffffffffffff168373ffffffffffffffffffffffffffffffffffffffff167f17307eab39ab6107e8899845ad3d59bd9653f200f220920489ca2b5937696c31836040516121389190612b2b565b60405180910390a3505050565b612150848484611b3c565b61215c848484846124a3565b61219b576040517f08c379a000000000000000000000000000000000000000000000000000000000815260040161219290614273565b60405180910390fd5b50505050565b60008073ffffffffffffffffffffffffffffffffffffffff166121c383611e35565b73ffffffffffffffffffffffffffffffffffffffff1614159050919050565b6060600060016121f18461262a565b01905060008167ffffffffffffffff8111156122105761220f612edc565b5b6040519080825280601f01601f1916602001820160405280156122425781602001600182028036833780820191505090505b509050600082602001820190505b6001156122a5578080600190039150507f3031323334353637383961626364656600000000000000000000000000000000600a86061a8153600a858161229957612298613fa3565b5b04945060008503612250575b819350505050919050565b606060008251036122d25760405180602001604052806000815250905061240e565b600060405180606001604052806040815260200161451d60409139905060006003600285516123019190614293565b61230b91906142c7565b600461231791906142f8565b67ffffffffffffffff8111156123305761232f612edc565b5b6040519080825280601f01601f1916602001820160405280156123625781602001600182028036833780820191505090505b509050600182016020820185865187015b808210156123ce576003820191508151603f8160121c168501518453600184019350603f81600c1c168501518453600184019350603f8160061c168501518453600184019350603f8116850151845360018401935050612373565b50506003865106600181146123ea57600281146123fd57612405565b603d6001830353603d6002830353612405565b603d60018303535b50505080925050505b919050565b60008151905060006a636f6e736f6c652e6c6f679050602083016000808483855afa5050505050565b50505050565b50505050565b612452838361277d565b61245f60008484846124a3565b61249e576040517f08c379a000000000000000000000000000000000000000000000000000000000815260040161249590614273565b60405180910390fd5b505050565b60006124c48473ffffffffffffffffffffffffffffffffffffffff1661299a565b1561261d578373ffffffffffffffffffffffffffffffffffffffff1663150b7a026124ed61196b565b8786866040518563ffffffff1660e01b815260040161250f949392919061438f565b6020604051808303816000875af192505050801561254b57506040513d601f19601f8201168201806040525081019061254891906143f0565b60015b6125cd573d806000811461257b576040519150601f19603f3d011682016040523d82523d6000602084013e612580565b606091505b5060008151036125c5576040517f08c379a00000000000000000000000000000000000000000000000000000000081526004016125bc90614273565b60405180910390fd5b805181602001fd5b63150b7a0260e01b7bffffffffffffffffffffffffffffffffffffffffffffffffffffffff1916817bffffffffffffffffffffffffffffffffffffffffffffffffffffffff191614915050612622565b600190505b949350505050565b600080600090507a184f03e93ff9f4daa797ed6e38ed64bf6a1f0100000000000000008310612688577a184f03e93ff9f4daa797ed6e38ed64bf6a1f010000000000000000838161267e5761267d613fa3565b5b0492506040810190505b6d04ee2d6d415b85acef810000000083106126c5576d04ee2d6d415b85acef810000000083816126bb576126ba613fa3565b5b0492506020810190505b662386f26fc1000083106126f457662386f26fc1000083816126ea576126e9613fa3565b5b0492506010810190505b6305f5e100831061271d576305f5e100838161271357612712613fa3565b5b0492506008810190505b612710831061274257612710838161273857612737613fa3565b5b0492506004810190505b60648310612765576064838161275b5761275a613fa3565b5b0492506002810190505b600a8310612774576001810190505b80915050919050565b600073ffffffffffffffffffffffffffffffffffffffff168273ffffffffffffffffffffffffffffffffffffffff16036127ec576040517f08c379a00000000000000000000000000000000000000000000000000000000081526004016127e390614469565b60405180910390fd5b6127f5816121a1565b15612835576040517f08c379a000000000000000000000000000000000000000000000000000000000815260040161282c906144d5565b60405180910390fd5b61284360008383600161243c565b61284c816121a1565b1561288c576040517f08c379a0000000000000000000000000000000000000000000000000000000008152600401612883906144d5565b60405180910390fd5b6001600360008473ffffffffffffffffffffffffffffffffffffffff1673ffffffffffffffffffffffffffffffffffffffff16815260200190815260200160002060008282540192505081905550816002600083815260200190815260200160002060006101000a81548173ffffffffffffffffffffffffffffffffffffffff021916908373ffffffffffffffffffffffffffffffffffffffff160217905550808273ffffffffffffffffffffffffffffffffffffffff16600073ffffffffffffffffffffffffffffffffffffffff167fddf252ad1be2c89b69c2b068fc378daa952ba7f163c4a11628f55a4df523b3ef60405160405180910390a4612996600083836001612442565b5050565b6000808273ffffffffffffffffffffffffffffffffffffffff163b119050919050565b6040518060200160405280600081525090565b6040518060c001604052806000815260200160608152602001606081526020016000815260200160008152602001600081525090565b60405180606001604052806000815260200160008152602001600081525090565b6000819050919050565b612a3a81612a27565b82525050565b602082016000820151612a566000850182612a31565b50505050565b6000602082019050612a716000830184612a40565b92915050565b6000604051905090565b600080fd5b600080fd5b60007fffffffff0000000000000000000000000000000000000000000000000000000082169050919050565b612ac081612a8b565b8114612acb57600080fd5b50565b600081359050612add81612ab7565b92915050565b600060208284031215612af957612af8612a81565b5b6000612b0784828501612ace565b91505092915050565b60008115159050919050565b612b2581612b10565b82525050565b6000602082019050612b406000830184612b1c565b92915050565b600081519050919050565b600082825260208201905092915050565b60005b83811015612b80578082015181840152602081019050612b65565b60008484015250505050565b6000601f19601f8301169050919050565b6000612ba882612b46565b612bb28185612b51565b9350612bc2818560208601612b62565b612bcb81612b8c565b840191505092915050565b60006020820190508181036000830152612bf08184612b9d565b905092915050565b612c0181612a27565b8114612c0c57600080fd5b50565b600081359050612c1e81612bf8565b92915050565b600060208284031215612c3a57612c39612a81565b5b6000612c4884828501612c0f565b91505092915050565b600073ffffffffffffffffffffffffffffffffffffffff82169050919050565b6000612c7c82612c51565b9050919050565b612c8c81612c71565b82525050565b6000602082019050612ca76000830184612c83565b92915050565b612cb681612c71565b8114612cc157600080fd5b50565b600081359050612cd381612cad565b92915050565b60008060408385031215612cf057612cef612a81565b5b6000612cfe85828601612cc4565b9250506020612d0f85828601612c0f565b9150509250929050565b600081519050919050565b600082825260208201905092915050565b6000819050602082019050919050565b600082825260208201905092915050565b6000612d6182612b46565b612d6b8185612d45565b9350612d7b818560208601612b62565b612d8481612b8c565b840191505092915050565b600060c083016000830151612da76000860182612a31565b5060208301518482036020860152612dbf8282612d56565b91505060408301518482036040860152612dd98282612d56565b9150506060830151612dee6060860182612a31565b506080830151612e016080860182612a31565b5060a0830151612e1460a0860182612a31565b508091505092915050565b6000612e2b8383612d8f565b905092915050565b6000602082019050919050565b6000612e4b82612d19565b612e558185612d24565b935083602082028501612e6785612d35565b8060005b85811015612ea35784840389528151612e848582612e1f565b9450612e8f83612e33565b925060208a01995050600181019050612e6b565b50829750879550505050505092915050565b60006020820190508181036000830152612ecf8184612e40565b905092915050565b600080fd5b7f4e487b7100000000000000000000000000000000000000000000000000000000600052604160045260246000fd5b612f1482612b8c565b810181811067ffffffffffffffff82111715612f3357612f32612edc565b5b80604052505050565b6000612f46612a77565b9050612f528282612f0b565b919050565b600067ffffffffffffffff821115612f7257612f71612edc565b5b602082029050602081019050919050565b600080fd5b6000612f9b612f9684612f57565b612f3c565b90508083825260208201905060208402830185811115612fbe57612fbd612f83565b5b835b81811015612fe75780612fd38882612c0f565b845260208401935050602081019050612fc0565b5050509392505050565b600082601f83011261300657613005612ed7565b5b8135613016848260208601612f88565b91505092915050565b6000806040838503121561303657613035612a81565b5b600061304485828601612c0f565b925050602083013567ffffffffffffffff81111561306557613064612a86565b5b61307185828601612ff1565b9150509250929050565b60008060006060848603121561309457613093612a81565b5b60006130a286828701612cc4565b93505060206130b386828701612cc4565b92505060406130c486828701612c0f565b9150509250925092565b6000602082840312156130e4576130e3612a81565b5b60006130f284828501612cc4565b91505092915050565b61310481612a27565b82525050565b600060208201905061311f60008301846130fb565b92915050565b61312e81612b10565b811461313957600080fd5b50565b60008135905061314b81613125565b92915050565b6000806040838503121561316857613167612a81565b5b600061317685828601612cc4565b92505060206131878582860161313c565b9150509250929050565b600080fd5b600067ffffffffffffffff8211156131b1576131b0612edc565b5b6131ba82612b8c565b9050602081019050919050565b82818337600083830152505050565b60006131e96131e484613196565b612f3c565b90508281526020810184848401111561320557613204613191565b5b6132108482856131c7565b509392505050565b600082601f83011261322d5761322c612ed7565b5b813561323d8482602086016131d6565b91505092915050565b600080600080608085870312156132605761325f612a81565b5b600061326e87828801612cc4565b945050602061327f87828801612cc4565b935050604061329087828801612c0f565b925050606085013567ffffffffffffffff8111156132b1576132b0612a86565b5b6132bd87828801613218565b91505092959194509250565b600060c0830160008301516132e16000860182612a31565b50602083015184820360208601526132f98282612d56565b915050604083015184820360408601526133138282612d56565b91505060608301516133286060860182612a31565b50608083015161333b6080860182612a31565b5060a083015161334e60a0860182612a31565b508091505092915050565b6000602082019050818103600083015261337381846132c9565b905092915050565b6060820160008201516133916000850182612a31565b5060208201516133a46020850182612a31565b5060408201516133b76040850182612a31565b50505050565b60006060820190506133d2600083018461337b565b92915050565b600080604083850312156133ef576133ee612a81565b5b60006133fd85828601612cc4565b925050602061340e85828601612cc4565b9150509250929050565b7f4e487b7100000000000000000000000000000000000000000000000000000000600052602260045260246000fd5b6000600282049050600182168061345f57607f821691505b60208210810361347257613471613418565b5b50919050565b7f4552433732313a20617070726f76616c20746f2063757272656e74206f776e6560008201527f7200000000000000000000000000000000000000000000000000000000000000602082015250565b60006134d4602183612b51565b91506134df82613478565b604082019050919050565b60006020820190508181036000830152613503816134c7565b9050919050565b7f4552433732313a20617070726f76652063616c6c6572206973206e6f7420746f60008201527f6b656e206f776e6572206f7220617070726f76656420666f7220616c6c000000602082015250565b6000613566603d83612b51565b91506135718261350a565b604082019050919050565b6000602082019050818103600083015261359581613559565b9050919050565b60006040820190506135b16000830185612c83565b6135be6020830184612c83565b9392505050565b7f4552433732313a2063616c6c6572206973206e6f7420746f6b656e206f776e6560008201527f72206f7220617070726f76656400000000000000000000000000000000000000602082015250565b6000613621602d83612b51565b915061362c826135c5565b604082019050919050565b6000602082019050818103600083015261365081613614565b9050919050565b7f4552433732313a20696e76616c696420746f6b656e2049440000000000000000600082015250565b600061368d601883612b51565b915061369882613657565b602082019050919050565b600060208201905081810360008301526136bc81613680565b9050919050565b7f4552433732313a2061646472657373207a65726f206973206e6f74206120766160008201527f6c6964206f776e65720000000000000000000000000000000000000000000000602082015250565b600061371f602983612b51565b915061372a826136c3565b604082019050919050565b6000602082019050818103600083015261374e81613712565b9050919050565b7f4e487b7100000000000000000000000000000000000000000000000000000000600052603260045260246000fd5b60008190508160005260206000209050919050565b60006020601f8301049050919050565b600082821b905092915050565b6000600883026137e67fffffffffffffffffffffffffffffffffffffffffffffffffffffffffffffffff826137a9565b6137f086836137a9565b95508019841693508086168417925050509392505050565b6000819050919050565b600061382d61382861382384612a27565b613808565b612a27565b9050919050565b6000819050919050565b61384783613812565b61385b61385382613834565b8484546137b6565b825550505050565b600090565b613870613863565b61387b81848461383e565b505050565b5b8181101561389f57613894600082613868565b600181019050613881565b5050565b601f8211156138e4576138b581613784565b6138be84613799565b810160208510156138cd578190505b6138e16138d985613799565b830182613880565b50505b505050565b600082821c905092915050565b6000613907600019846008026138e9565b1980831691505092915050565b600061392083836138f6565b9150826002028217905092915050565b61393982612b46565b67ffffffffffffffff81111561395257613951612edc565b5b61395c8254613447565b6139678282856138a3565b600060209050601f83116001811461399a5760008415613988578287015190505b6139928582613914565b8655506139fa565b601f1984166139a886613784565b60005b828110156139d0578489015182556001820191506020850194506020810190506139ab565b868310156139ed57848901516139e9601f8916826138f6565b8355505b6001600288020188555050505b505050505050565b6000819050919050565b613a1581613a02565b82525050565b600067ffffffffffffffff82169050919050565b613a3881613a1b565b82525050565b600061ffff82169050919050565b613a5581613a3e565b82525050565b600063ffffffff82169050919050565b613a7481613a5b565b82525050565b600060a082019050613a8f6000830188613a0c565b613a9c6020830187613a2f565b613aa96040830186613a4c565b613ab66060830185613a6b565b613ac36080830184613a6b565b9695505050505050565b600081519050613adc81612bf8565b92915050565b600060208284031215613af857613af7612a81565b5b6000613b0684828501613acd565b91505092915050565b600081905092915050565b7f7b226e616d65223a220000000000000000000000000000000000000000000000600082015250565b6000613b50600983613b0f565b9150613b5b82613b1a565b600982019050919050565b6000613b7182612b46565b613b7b8185613b0f565b9350613b8b818560208601612b62565b80840191505092915050565b7f2d2d4e467420233a200000000000000000000000000000000000000000000000600082015250565b6000613bcd600983613b0f565b9150613bd882613b97565b600982019050919050565b7f222c20226465736372697074696f6e223a20225468697320697320616e204e4660008201527f542074686174206c6574732070656f706c6520706c617920696e20746865206760208201527f616d65204d657461766572736520536c617965722122202c2022696d6167652260408201527f3a20220000000000000000000000000000000000000000000000000000000000606082015250565b6000613c8b606383613b0f565b9150613c9682613be3565b606382019050919050565b7f222c2261747472696275746573223a205b7b2274726169745f74797065223a2060008201527f224865616c746820506f696e7473222c202276616c7565223a20000000000000602082015250565b6000613cfd603a83613b0f565b9150613d0882613ca1565b603a82019050919050565b7f2c20226d61785f76616c7565223a000000000000000000000000000000000000600082015250565b6000613d49600e83613b0f565b9150613d5482613d13565b600e82019050919050565b7f7d2c207b202274726169745f74797065223a202241747461636b2044616d616760008201527f65222c202276616c7565223a2000000000000000000000000000000000000000602082015250565b6000613dbb602d83613b0f565b9150613dc682613d5f565b602d82019050919050565b7f7d5d7d0000000000000000000000000000000000000000000000000000000000600082015250565b6000613e07600383613b0f565b9150613e1282613dd1565b600382019050919050565b6000613e2882613b43565b9150613e348289613b66565b9150613e3f82613bc0565b9150613e4b8288613b66565b9150613e5682613c7e565b9150613e628287613b66565b9150613e6d82613cf0565b9150613e798286613b66565b9150613e8482613d3c565b9150613e908285613b66565b9150613e9b82613dae565b9150613ea78284613b66565b9150613eb282613dfa565b9150819050979650505050505050565b6000613ece8285613b66565b9150613eda8284613b66565b91508190509392505050565b7f4e487b7100000000000000000000000000000000000000000000000000000000600052601160045260246000fd5b6000613f2082612a27565b9150613f2b83612a27565b9250828203905081811115613f4357613f42613ee6565b5b92915050565b60006080820190508181036000830152613f638187612b9d565b90508181036020830152613f778186612b9d565b9050613f8660408301856130fb565b8181036060830152613f988184612b9d565b905095945050505050565b7f4e487b7100000000000000000000000000000000000000000000000000000000600052601260045260246000fd5b6000613fdd82612a27565b9150613fe883612a27565b925082613ff857613ff7613fa3565b5b828206905092915050565b7f4552433732313a207472616e736665722066726f6d20696e636f72726563742060008201527f6f776e6572000000000000000000000000000000000000000000000000000000602082015250565b600061405f602583612b51565b915061406a82614003565b604082019050919050565b6000602082019050818103600083015261408e81614052565b9050919050565b7f4552433732313a207472616e7366657220746f20746865207a65726f2061646460008201527f7265737300000000000000000000000000000000000000000000000000000000602082015250565b60006140f1602483612b51565b91506140fc82614095565b604082019050919050565b60006020820190508181036000830152614120816140e4565b9050919050565b600060408201905081810360008301526141418185612b9d565b905061415060208301846130fb565b9392505050565b600060608201905081810360008301526141718186612b9d565b905061418060208301856130fb565b61418d60408301846130fb565b949350505050565b7f4552433732313a20617070726f766520746f2063616c6c657200000000000000600082015250565b60006141cb601983612b51565b91506141d682614195565b602082019050919050565b600060208201905081810360008301526141fa816141be565b9050919050565b7f4552433732313a207472616e7366657220746f206e6f6e20455243373231526560008201527f63656976657220696d706c656d656e7465720000000000000000000000000000602082015250565b600061425d603283612b51565b915061426882614201565b604082019050919050565b6000602082019050818103600083015261428c81614250565b9050919050565b600061429e82612a27565b91506142a983612a27565b92508282019050808211156142c1576142c0613ee6565b5b92915050565b60006142d282612a27565b91506142dd83612a27565b9250826142ed576142ec613fa3565b5b828204905092915050565b600061430382612a27565b915061430e83612a27565b925082820261431c81612a27565b9150828204841483151761433357614332613ee6565b5b5092915050565b600081519050919050565b600082825260208201905092915050565b60006143618261433a565b61436b8185614345565b935061437b818560208601612b62565b61438481612b8c565b840191505092915050565b60006080820190506143a46000830187612c83565b6143b16020830186612c83565b6143be60408301856130fb565b81810360608301526143d08184614356565b905095945050505050565b6000815190506143ea81612ab7565b92915050565b60006020828403121561440657614405612a81565b5b6000614414848285016143db565b91505092915050565b7f4552433732313a206d696e7420746f20746865207a65726f2061646472657373600082015250565b6000614453602083612b51565b915061445e8261441d565b602082019050919050565b6000602082019050818103600083015261448281614446565b9050919050565b7f4552433732313a20746f6b656e20616c7265616479206d696e74656400000000600082015250565b60006144bf601c83612b51565b91506144ca82614489565b602082019050919050565b600060208201905081810360008301526144ee816144b2565b905091905056fe426f73732061747461636b656420706c617965722e204e657720506c617965722068703a25730a4142434445464748494a4b4c4d4e4f505152535455565758595a6162636465666768696a6b6c6d6e6f707172737475767778797a303132333435363738392b2f4d696e746564204e667420772f20746f6b656e496420257320616e6420636861726163746572496e646578202573506c617965722061747461636b656420626f73732e204e657720426f73732068703a202573a2646970667358221220c201d374de62bfd2978f8046ef0f6beeb9914cb42c732c81c3d42605c90d016d64736f6c63430008120033446f6e6520696e697469616c697a696e6720257320772f204850202573202c20696d67202573",
  "devdoc": {
    "author": "Prince Sharma",
    "events": {
      "Approval(address,address,uint256)": {
        "details": "Emitted when `owner` enables `approved` to manage the `tokenId` token."
      },
      "ApprovalForAll(address,address,bool)": {
        "details": "Emitted when `owner` enables or disables (`approved`) `operator` to manage all of its assets."
      },
      "Transfer(address,address,uint256)": {
        "details": "Emitted when `tokenId` token is transferred from `from` to `to`."
      }
    },
    "kind": "dev",
    "methods": {
      "approve(address,uint256)": {
        "details": "See {IERC721-approve}."
      },
      "balanceOf(address)": {
        "details": "See {IERC721-balanceOf}."
      },
      "getApproved(uint256)": {
        "details": "See {IERC721-getApproved}."
      },
      "isApprovedForAll(address,address)": {
        "details": "See {IERC721-isApprovedForAll}."
      },
      "mintCharacterNFT()": {
        "details": "increments the tokenid and return nothing"
      },
      "name()": {
        "details": "See {IERC721Metadata-name}."
      },
      "ownerOf(uint256)": {
        "details": "See {IERC721-ownerOf}."
      },
      "safeTransferFrom(address,address,uint256)": {
        "details": "See {IERC721-safeTransferFrom}."
      },
      "safeTransferFrom(address,address,uint256,bytes)": {
        "details": "See {IERC721-safeTransferFrom}."
      },
      "setApprovalForAll(address,bool)": {
        "details": "See {IERC721-setApprovalForAll}."
      },
      "supportsInterface(bytes4)": {
        "details": "See {IERC165-supportsInterface}."
      },
      "symbol()": {
        "details": "See {IERC721Metadata-symbol}."
      },
      "tokenURI(uint256)": {
        "returns": {
          "_0": "the base-64 encoded url of nft"
        }
      },
      "transferFrom(address,address,uint256)": {
        "details": "See {IERC721-transferFrom}."
      }
    },
    "title": "contract for mint character Nfts",
    "version": 1
  },
  "userdoc": {
    "kind": "user",
    "methods": {
      "mintCharacterNFT()": {
        "notice": "mints the nft and updates the mapping"
      },
      "tokenURI(uint256)": {
        "notice": "it takes a tokenid and returns the url for your NFT"
      }
    },
    "notice": "you can use this contract for mint NFTs",
    "version": 1
  },
  "storageLayout": {
    "storage": [
      {
        "astId": 179,
        "contract": "contracts/MyEpicGame.sol:MyEpicGame",
        "label": "_name",
        "offset": 0,
        "slot": "0",
        "type": "t_string_storage"
      },
      {
        "astId": 181,
        "contract": "contracts/MyEpicGame.sol:MyEpicGame",
        "label": "_symbol",
        "offset": 0,
        "slot": "1",
        "type": "t_string_storage"
      },
      {
        "astId": 185,
        "contract": "contracts/MyEpicGame.sol:MyEpicGame",
        "label": "_owners",
        "offset": 0,
        "slot": "2",
        "type": "t_mapping(t_uint256,t_address)"
      },
      {
        "astId": 189,
        "contract": "contracts/MyEpicGame.sol:MyEpicGame",
        "label": "_balances",
        "offset": 0,
        "slot": "3",
        "type": "t_mapping(t_address,t_uint256)"
      },
      {
        "astId": 193,
        "contract": "contracts/MyEpicGame.sol:MyEpicGame",
        "label": "_tokenApprovals",
        "offset": 0,
        "slot": "4",
        "type": "t_mapping(t_uint256,t_address)"
      },
      {
        "astId": 199,
        "contract": "contracts/MyEpicGame.sol:MyEpicGame",
        "label": "_operatorApprovals",
        "offset": 0,
        "slot": "5",
        "type": "t_mapping(t_address,t_mapping(t_address,t_bool))"
      },
      {
        "astId": 2870,
        "contract": "contracts/MyEpicGame.sol:MyEpicGame",
        "label": "s_evilboss",
        "offset": 0,
        "slot": "6",
        "type": "t_struct(evilBoss)2847_storage"
      },
      {
        "astId": 2874,
        "contract": "contracts/MyEpicGame.sol:MyEpicGame",
        "label": "defaultCharacters",
        "offset": 0,
        "slot": "9",
        "type": "t_array(t_struct(characterAttributes)2840_storage)dyn_storage"
      },
      {
        "astId": 2876,
        "contract": "contracts/MyEpicGame.sol:MyEpicGame",
        "label": "s_index",
        "offset": 0,
        "slot": "10",
        "type": "t_uint256"
      },
      {
        "astId": 2879,
        "contract": "contracts/MyEpicGame.sol:MyEpicGame",
        "label": "s_tokenIds",
        "offset": 0,
        "slot": "11",
        "type": "t_struct(Counter)1646_storage"
      },
      {
        "astId": 2883,
        "contract": "contracts/MyEpicGame.sol:MyEpicGame",
        "label": "s_NFTHolders",
        "offset": 0,
        "slot": "12",
        "type": "t_mapping(t_address,t_uint256)"
      },
      {
        "astId": 2888,
        "contract": "contracts/MyEpicGame.sol:MyEpicGame",
        "label": "s_NFTHolderAttributes",
        "offset": 0,
        "slot": "13",
        "type": "t_mapping(t_uint256,t_struct(characterAttributes)2840_storage)"
      }
    ],
    "types": {
      "t_address": {
        "encoding": "inplace",
        "label": "address",
        "numberOfBytes": "20"
      },
      "t_array(t_struct(characterAttributes)2840_storage)dyn_storage": {
        "base": "t_struct(characterAttributes)2840_storage",
        "encoding": "dynamic_array",
        "label": "struct MyEpicGame.characterAttributes[]",
        "numberOfBytes": "32"
      },
      "t_bool": {
        "encoding": "inplace",
        "label": "bool",
        "numberOfBytes": "1"
      },
      "t_mapping(t_address,t_bool)": {
        "encoding": "mapping",
        "key": "t_address",
        "label": "mapping(address => bool)",
        "numberOfBytes": "32",
        "value": "t_bool"
      },
      "t_mapping(t_address,t_mapping(t_address,t_bool))": {
        "encoding": "mapping",
        "key": "t_address",
        "label": "mapping(address => mapping(address => bool))",
        "numberOfBytes": "32",
        "value": "t_mapping(t_address,t_bool)"
      },
      "t_mapping(t_address,t_uint256)": {
        "encoding": "mapping",
        "key": "t_address",
        "label": "mapping(address => uint256)",
        "numberOfBytes": "32",
        "value": "t_uint256"
      },
      "t_mapping(t_uint256,t_address)": {
        "encoding": "mapping",
        "key": "t_uint256",
        "label": "mapping(uint256 => address)",
        "numberOfBytes": "32",
        "value": "t_address"
      },
      "t_mapping(t_uint256,t_struct(characterAttributes)2840_storage)": {
        "encoding": "mapping",
        "key": "t_uint256",
        "label": "mapping(uint256 => struct MyEpicGame.characterAttributes)",
        "numberOfBytes": "32",
        "value": "t_struct(characterAttributes)2840_storage"
      },
      "t_string_storage": {
        "encoding": "bytes",
        "label": "string",
        "numberOfBytes": "32"
      },
      "t_struct(Counter)1646_storage": {
        "encoding": "inplace",
        "label": "struct Counters.Counter",
        "members": [
          {
            "astId": 1645,
            "contract": "contracts/MyEpicGame.sol:MyEpicGame",
            "label": "_value",
            "offset": 0,
            "slot": "0",
            "type": "t_uint256"
          }
        ],
        "numberOfBytes": "32"
      },
      "t_struct(characterAttributes)2840_storage": {
        "encoding": "inplace",
        "label": "struct MyEpicGame.characterAttributes",
        "members": [
          {
            "astId": 2829,
            "contract": "contracts/MyEpicGame.sol:MyEpicGame",
            "label": "index",
            "offset": 0,
            "slot": "0",
            "type": "t_uint256"
          },
          {
            "astId": 2831,
            "contract": "contracts/MyEpicGame.sol:MyEpicGame",
            "label": "name",
            "offset": 0,
            "slot": "1",
            "type": "t_string_storage"
          },
          {
            "astId": 2833,
            "contract": "contracts/MyEpicGame.sol:MyEpicGame",
            "label": "imageUri",
            "offset": 0,
            "slot": "2",
            "type": "t_string_storage"
          },
          {
            "astId": 2835,
            "contract": "contracts/MyEpicGame.sol:MyEpicGame",
            "label": "hp",
            "offset": 0,
            "slot": "3",
            "type": "t_uint256"
          },
          {
            "astId": 2837,
            "contract": "contracts/MyEpicGame.sol:MyEpicGame",
            "label": "attackDamage",
            "offset": 0,
            "slot": "4",
            "type": "t_uint256"
          },
          {
            "astId": 2839,
            "contract": "contracts/MyEpicGame.sol:MyEpicGame",
            "label": "maxHp",
            "offset": 0,
            "slot": "5",
            "type": "t_uint256"
          }
        ],
        "numberOfBytes": "192"
      },
      "t_struct(evilBoss)2847_storage": {
        "encoding": "inplace",
        "label": "struct MyEpicGame.evilBoss",
        "members": [
          {
            "astId": 2842,
            "contract": "contracts/MyEpicGame.sol:MyEpicGame",
            "label": "hp",
            "offset": 0,
            "slot": "0",
            "type": "t_uint256"
          },
          {
            "astId": 2844,
            "contract": "contracts/MyEpicGame.sol:MyEpicGame",
            "label": "attackDamage",
            "offset": 0,
            "slot": "1",
            "type": "t_uint256"
          },
          {
            "astId": 2846,
            "contract": "contracts/MyEpicGame.sol:MyEpicGame",
            "label": "maxHp",
            "offset": 0,
            "slot": "2",
            "type": "t_uint256"
          }
        ],
        "numberOfBytes": "96"
      },
      "t_uint256": {
        "encoding": "inplace",
        "label": "uint256",
        "numberOfBytes": "32"
      }
    }
  }
}